:06000000A5C0FECFFDCFFC
:10000600FCCFFBCFFACFF9CFF8CFE5C0F6CFF5CFCF
:10001600F4CFF3CFF2CFF1CFF0CFC1C0EECFEDCF1B
:100026001027E80364000A00010000100001100018
:1000360001000400706E756D200000CA9A3B00E155
:10004600F5058096980040420F00A0860100102713
:100056000000E8030000640000000A000000010040
:1000660060016C01780184019401A401B6535C24FB
:10007600DF4BF52052616E67653A204175746F005B
:1000860052616E67653A204C6F77200052616E6749
:10009600653A20486967680043616C6962726174F9
:1000A600653A205A65726F0043616C6962726174C9
:1000B600653A203120754600536176652063616C90
:1000C6006962726174696F6E004175746F200046D3
:1000D6006F72636500206869676800206C6F77201F
:1000E600000080C00100050038000500CD013A007F
:1000F6002500D20140000C0060017A000C006C0162
:1001060086000C0078019200100084019E00100009
:100116009401AE001100A401BE000C001E02660090
:1001260008002A0272000600B501CF000600BB01D6
:10013600D5000600C101DB000600C701E100020090
:100146004202E8000000F894EE27ECBBF1E0FBBFAA
:10015600EBBFE5BF8DE0A2E0BB27ED938A95E9F7FB
:1001660080E094E0A0E6ED930197E9F7EAEEF0E08F
:1001760085919591009761F0A591B591059015909F
:10018600BF01F00105900D920197E1F7FB01F0CF59
:10019600EFE5EDBFE4E0EEBFC0E6D1E05AC2AA93B8
:1001A600EA93EFB7EA9354D3A13039F4E1E0EEBD18
:1001B600E0911D02E7B9E2E007C04AD3A23031F46C
:1001C600459B04C048D3E3E0E0931C02E991EFBFEE
:1001D600E991A9911895AA93BA93EA93FA93EFB77E
:1001E600EA93AAE1B2E0ED91FD913196FE93EE938A
:1001F600E991EFBFF991E991B991A99118952ED39B
:100206002897CCD4E889F9898F01E889F9896A8920
:100216007B891CD49F01D80124D318D4E887F98799
:100226006A877B87D9011DD3EC83FD836E837F8329
:10023600E885F9856A857B851CD3E4D3AC85BD85C5
:1002460068D4B1D464960895A1E0B0E080D4E334D4
:1002560009F00895A2E0B0E07AD4E43409F00895F4
:100266000DD3D2D216D3D0D20895A1E0B0E0E3E404
:100276007AD4A2E0B0E0E4E476D400D3D6D209D3AF
:10028600D4D20895AA938CD4AA81A03110F0E1E0CB
:1002960001C0E0E01E2FEA81F0E0AFE0B0E025D437
:1002A6000E2F0A93A12F48D2AB81BC8174D27DD484
:1002B60097C148D473D400E030E020E010E01A3053
:1002C60010F4053008F045C03030B9F0E12FF0E009
:1002D600E130A0E0FA0711F42F5F04C0E430A0E09B
:1002E600FA0711F42F5F04C0E730A0E0FA0729F4FB
:1002F6002F5FDAD2EEE2EC930F5FDCD290F430306F
:1003060019F0D2D2E0E30AC0163020F0CDD2E0E2F6
:10031600EC930F5F163021F4C7D2E0E2EC930F5F47
:1003260016C0C2D2E0E3EC93C5D278F0BDD2EC9110
:10033600EF5FEC93E12FA2EDB1E0C7D29AD26CD376
:10034600AC83BD838E839F83EFCF0F5F31E01F5F4A
:10035600B6CFE22F7AC224D4E0E0E0931C02E1E0BB
:10036600E7B995988D9A8E98B6D2829902C0B6D280
:1003760079C0459B04C08E9AAAE0B5D2F4CF8E9A76
:10038600A4E6B1D268D2E0E0F0E0FDBDECBDE093BA
:100396001A02E0931B028D989598E1E0E0931C0207
:1003A60050FE02C0E3E001C0E2E0E0931D02949833
:1003B6008E9852FE23C000E010E04AD2A13039F4F4
:1003C600F80131968F01E43FA1E0FA0708F006C074
:1003D60082D2829902C082D245C0EFCF043FE1E0CB
:1003E6001E0748F08E9AA4E67ED28E98959A8D9A2C
:1003F600E2E05E2A02C0EDEF5E2204C051FE02C0BA
:10040600959A8D9A00E010E023D2A33039F0F801D6
:1004160031968F01E031A7E2FA0708F006C05BD2F9
:10042600829902C05BD21EC0EFCF8D9895988E9AA6
:10043600949A0ED2A33019F0E8E05E2A02C0E7EFE4
:100446005E22E0E0E0931C02E0911A02F0911B02AA
:100456006627772700D3DF01CB01ECB5FDB566270C
:100466007727D0D20991199108956CD324971A93BE
:1004760052FE03C0E5EBF1E002C0EBEBF1E0FA93CC
:10048600EA93A0E0FFDE51FE03C0E1ECF1E002C01A
:10049600E7ECF1E0FA93EA93A0E1F4DE53FE17C02D
:1004A600E0E2E093FA01E093FB01E093FC01E5E46E
:1004B600E093FD01E2E7E093FE01E093FF01EFE642
:1004C600E0930002E2E7E0930102E0E23DC0E52DA1
:1004D600E3701E2F0AD2DF01CB010BD255D358F49D
:1004E600EDE2E093FA0101D209D291D2ED83FE83C7
:1004F6006F8378870AC0E0E2E093FA01F6D1FED175
:100506008BD2AD83BE838F839887F3D116D3E12F29
:10051600FAD1FFD1DE01179672DEEBEFF1E0FA9326
:10052600EA93AB81BC818D819E81C3DE1E2F51FC77
:100536001F5FE0E2E0930002E12FF0E0E353FE4F9D
:10054600E081E0930102E6E4E0930202E0E0E0935A
:10055600030250FE02C017E001C017E1EAEFF1E026
:10056600FA93EA93A12F8EDE188129960895D7D1A2
:10057600E0D1E5D1E1E0F0D1DCD1E1D12FC0CFD19E
:10058600EDD1F0D1F4D1FAD1FF93EF93FAD1AF9137
:10059600BF9101D2E1E0E0D1E1D1E4D1E8D1EED1E1
:1005A600FF93EF93EED1AF91BF91F5D1E2E0D4D1B5
:1005B600D5D1D8D1DCD1E2D1FF93EF93EFD1AF9172
:1005C600BF91E9D1E3E0C8D1C9D1CCD1D0D1D6D140
:1005D600FF93EF93E3D1AF91BF91DDD1512E1881F7
:1005E600259608951A93B5D010E0163050F4E1D14F
:1005F600A0E048DEA0E2B3E0FBD1829902C01F5F13
:10060600F4CF163029F4A5D0829BFECFAAE00BC00A
:10061600A0D0A8EC68D1CDD1A0E034DEA0E9B1E04D
:10062600E7D197D0A8ECB0E0E3D1E12F1991089576
:10063600E0E1E1BB9698929AE0E0EFBD0CD1E4E0F0
:10064600E9BFEBE0E8B9E1E0E7B9E0B7E860E0BFB1
:1006560008952497EFEFE7BBE0E0E8BBE4BBE5BB1A
:10066600E1BBE2BBE3BFE2BFEFBDF5D0E0E0EDBD2D
:10067600ECBDE7BDE6BDEBBDEABDE9BDE8BDE2BD4B
:10068600E5BDE4BDE3BDE9BFE5BFEAB9E0E8E8B929
:10069600E0E0E0BFE6B9EDB9E6BFA0E18CD0C8DF87
:1006A600D3DD7894949AE4E05E2EE1E05E2653DE94
:1006B6003AD2829922C0949A8D9895988E9A92DF12
:1006C600E03019F4E4E05E2A17C0E13019F4E9EFEE
:1006D6005E2212C0E23029F4EBEF5E22E2E05E2AEF
:1006E6000BC0E33011F443DF07C0E43011F447DFF9
:1006F60003C0E53009F4B9DD02C010D2B6DED5CFAD
:10070600FFCFAA93E8B3E07FAE2FE881E295EF70C2
:10071600EA2BE8BB55D1C49A53D1C49851D172C0C3
:10072600AA93A881EEDFE881E295E883A881E9DF54
:1007360085E88A95F1F766C0AA93E881F0E0EE5B5A
:10074600FD4FE081A981AE0FEBDF498078802296CC
:100756000895A2E0E5DFA3E0C6D0ACE0E1DFA1E0CA
:10076600DFDFA3E0C0D0E0E07E2E4E2E0895AA93F0
:10077600A881AA3011F0461440F0E0E0EA937394A1
:10078600A72DDADFA881AA30E9F14394C59AA8819A
:10079600C7DFC59837C062D01A93A981BA81ED9197
:1007A600A983BA831E2FE03019F0A12FE0DFF5CF21
:1007B600188123960895AA93E7B3EF60E7BBBC9A26
:1007C600BD9ABE9AC498C598C6986880E881E058D4
:1007D600E0934402E881E054E0934502A4E183D02B
:1007E600F3D0F2D0F1D0A0E28CDF88EC90E0019754
:1007F600F1F7A8E295DFA4E093DFA5E891DFA6E094
:100806008FDFA7DF2196089529D0C8D108851985DD
:100816002E813F81E0D041F01F930F93E3D097D113
:10082600AF91BF91EC93F6CF10C018D0B7D10E811F
:100836001F8128853985CFD041F01F930F93D2D0E1
:10084600EC91AF91BF918FD1F6CFADD12A96089595
:10085600A0911C020895E0E0EEBD0895BA93AA9314
:10086600089588279927EE85FF8566277727F8D08C
:100876000895AC81BD818E819F810895E2E3F2E007
:10088600FA93EA93E3E0F0E0FA93EA93A0E1B0E0AA
:100896000895EAE2F2E0FA93EA93E3E1F0E0FA93EC
:1008A600EA93A8E0B0E00895A885B985EE27A00FE1
:1008B600BE1F0895E12FA2EDB1E0F0E0C2D0AE0F69
:1008C600BF1F21D1D6DF65D10895F0E0BAD0AE0FB3
:1008D600BF1F19D10895A1E0B0E08AC0E0E0F0E0C2
:1008E60060E070E00895B0E083C0E12FA2E3B2E0DB
:1008F600ECCFED81FE816F8178850895AD81BE8153
:100906008F8198850895AAE2B2E0F0E0EE0FFF1F0E
:100916000895AE0FBF1FF3D0FA93EA930895249774
:100926001A93152D552417DDE983FA836B837C838F
:10093600089511DDE983FA836B837C830895E52DA1
:10094600A2E3B2E0F0E07DD0EA0FFB1FA981BA81F5
:100956008B819C81EDD008955E2EEBCFE52DA2E331
:10096600B2E0B3CFA981BA818B819C81089554D01E
:10097600A983BA838B839C83E52DC5CFEA0FFB1F22
:100986000895F0DFE8E051D0A0E0B0E482E49FE013
:1009960087D031960895ED93FC930895E981FA8105
:1009A6006B817C81A0E0B0E088EE93E079D031964F
:1009B6000895E12FAEE1B2E0F0E0EE0FFF1FA9CF00
:1009C6008DE08A95F1F70895A0E39BDE88EC90E030
:1009D6000197F1F70895EC81FD813197EC83FD8352
:1009E600319608950F5F1F4FD9012F5F3F4F08952E
:1009F600109639F0A89580ED97E00197F1F71197D9
:100A0600C9F70895EA0FFB1F681F791F0895EA1BAF
:100A1600FB0B680B790B0895AE1BBF0B860B970B70
:100A26000895F195E195F0400895EE230E2EFD010F
:100A3600BC0131F076956795F795E7950A94D1F75D
:100A46000895EE0FFF1FEE0FFF1F0895E62FF72FF5
:100A560060E070E008956E2F7F2FE0E0F0E00895EB
:100A66007A9F702D6B9F700DF89F700DE99F700D2A
:100A76006A9F602D710DFB9F600D711DE89F600DD3
:100A8600711D8827FA9FF02D610D781FEB9FF00DE1
:100A9600611D781FEA9FE02DF10D681F781F0895EC
:100AA6003F934F935F93002411244427552730E248
:100AB600AA0FBB1F881F991F001C111C441F551F1E
:100AC6000E1A1F0A460B570B28F40E0E1F1E461F42
:100AD600571F01C0A1603A9559F7FD01BC01D0012D
:100AE600CA015F914F913F910895E894F7FF02C0C4
:100AF60098DF6894EA23FB230EF493DF0895ED91C3
:100B0600FC9111970895ED91FD916D917C9113974C
:100B16000895ED93FD936D937C930895A881B98113
:100B26008A819B810895E883F9836A837B8308958C
:100B3600A083B1838283938308957A936A93FA9309
:100B4600EA9308959A938A93BA93AA930895E1999A
:100B5600FECFFF93FFB7F894AEBBBFBBE09AEDB3F1
:100B6600FFBFFF910895E19B02C0A895FCCF9FB7F8
:100B7600F894AEBBBFBBE09A8DB3E81719F0EDBB96
:100B8600E29AE19A9FBF0895EA17FB07680779077B
:100B96000895AE17BF078607970708953A932A93D5
:100BA6001A930A9308953B812A8119810881089531
:00000001FF
