:1000000092C0FECFFDCFFCCFFBCFFACFF9CFF8CF18
:10001000D2C0F6CFF5CFF4CFF3CFF2CFF1CFF0CF00
:10002000AEC0EECFEDCF1027E80364000A00010058
:1000300000100001100001000400706E756D2000BA
:1000400060016C01780184019401A401B6535C2421
:10005000DF4BF52052616E67653A204175746F0081
:1000600052616E67653A204C6F77200052616E676F
:10007000653A20486967680043616C69627261741F
:10008000653A205A65726F0043616C6962726174EF
:10009000653A203120754600536176652063616CB6
:1000A0006962726174696F6E002530356C7500414C
:1000B00075746F2000466F72636500206869676819
:1000C00000206C6F7720000080C001000500380020
:1000D0000500CD013A000C00600154000C006C01D9
:1000E00060000C0078016C001000840178001000A2
:1000F000940188001100A40198000C00F601400052
:10010000080002024C000600B501AF000600BB016A
:10011000B5000600C101BB000600C701C100020016
:100120001A02C8000000F894EE27ECBBF1E0FBBF18
:10013000EBBFE5BF8DE0A2E0BB27ED938A95E9F721
:1001400080E094E0A0E6ED930197E9F7EAECF0E0B7
:1001500085919591009761F0A591B59105901590C5
:10016000BF01F00105900D920197E1F7FB01F0CF7F
:10017000EFE5EDBFE4E0EEBFC0E6D1E015C2AA9323
:10018000EA93EFB7EA9393D4A13039F4E1E0EEBDFE
:10019000E091F501E7B9E2E007C089D4A23031F47B
:1001A000459B04C087D4E3E0E093F401E991EFBFFD
:1001B000E991A9911895AA93BA93EA93FA93EFB7A4
:1001C000EA93A2EFB1E079D4E991EFBFF991E99117
:1001D000B991A991189577D42C9776D6AC89BD8919
:1001E0008E899F89E0E186D58F01EC89FD899F0189
:1001F000D801AED56BD4EC87FD876E877F87D90198
:100200008827992763D4E050F0486F4F7F4F8FD5F0
:10021000E887F9876A877B87AC85BD858E859F8552
:100220004ED5EC83FD836E837F8355D459D406D697
:1002300052D668960895A1E0B0E022D6E33409F0E2
:100240000895A2E0B0E01CD6E43409F008954BD440
:1002500086D254D484D20895A1E0B0E0E3E41CD661
:10026000A2E0B0E0E4E418D63ED48AD247D488D2E3
:100270000895AA932BD6AA81A03110F0E1E001C025
:10028000E0E01E2FEA81F0E0AFE0B0E0B0D50E2F45
:100290000A93A12FFCD1AB81BC8128D2ADC2EBD592
:1002A000EC81FD8136D4E9EAF0E033D414D4DED514
:1002B00084E0BDD32896E5E02696089507D6E0E0D1
:1002C000E093F401E1E0E7B995988D9A8E9824D4F3
:1002D000829902C024D479C0459B04C08E9AAAE0BA
:1002E00023D4F4CF8E9AA4E61FD4E4D3E0E0F0E068
:1002F000FDBDECBDE093F201E093F3018D9895987C
:10030000E1E0E093F40150FE02C0E3E001C0E2E06E
:10031000E093F50194988E9852FE23C000E010E01F
:10032000C6D3A13039F4F80131968F01E43FA1E042
:10033000FA0708F006C0F0D3829902C0F0D345C096
:10034000EFCF043FE1E01E0748F08E9AA4E6ECD31D
:100350008E98959A8D9AE2E05E2A02C0EDEF5E22B9
:1003600004C051FE02C0959A8D9A00E010E09FD320
:10037000A33039F0F80131968F01E031A7E2FA0796
:1003800008F006C0C9D3829902C0C9D31EC0EFCFFE
:100390008D9895988E9A949A8AD3A33019F0E8E0B4
:1003A0005E2A02C0E7EF5E22E0E0E093F401E09114
:1003B000F201F091F30166277727C0D4DF01CB016A
:1003C000ECB5FDB5662777277AD409911991089580
:1003D00052D524971A9352FE03C0E5EBF1E002C018
:1003E000EBEBF1E0FA93EA93A0E043DF51FE03C0A8
:1003F000E1ECF1E002C0E7ECF1E0FA93EA93A0E16E
:1004000038DF53FE17C0E0E2E093D201E093D3015E
:10041000E093D401E5E4E093D501E2E7E093D6016F
:10042000E093D701EFE6E093D801E2E7E093D9014A
:10043000E0E23DC0E52DE3701E2F78D3DF01CB0154
:100440007ED33BD558F4EDE2E093D2016FD37CD359
:100450003BD4ED83FE836F8378870AC0E0E2E093AC
:10046000D20164D371D335D4AD83BE838F83988793
:1004700066D3FCD4E12F6DD372D374D3DE0117960B
:10048000AADEE3EDF1E045D3AB81BC818D819E8195
:1004900006DF1E2F51FC1F5FE0E2E093D801E12F41
:1004A000F0E0E353FE4FE081E093D901E6E4E0930E
:1004B000DA01E0E0E093DB0150FE02C017E001C08A
:1004C00017E1E2EDF1E025D3A12FD3DE18812996C3
:1004D00008954AD353D358D3E1E063D34FD354D3D1
:1004E000512E18818AC140D35ED36FD3FF93EF930F
:1004F0006FD3AF91BF9179D3E1E053D354D365D398
:10050000FF93EF9365D3AF91BF916FD3E2E049D3EF
:100510004AD35BD3FF93EF936BD3AF91BF9165D376
:10052000E3E03FD340D351D3FF93EF9361D3AF9137
:10053000BF915BD3512E188160C11A93B5D010E0E2
:10054000163050F460D3A0E094DEA0E2B3E0A9D36B
:10055000829902C01F5FF4CF163029F4A5D0829B88
:10056000FECFAAE00BC0A0D0A8ECDED24CD3A0E016
:1005700080DEA0E9B1E095D397D0A8ECB0E091D3AC
:10058000E12F19910895E0E1E1BB9698929AE0E09D
:10059000EFBD90D2E4E0E9BFEBE0E8B9E1E0E7B914
:1005A000E0B7E860E0BF08952497EFEFE7BBE0E035
:1005B000E8BBE4BBE5BBE1BBE2BBE3BFE2BFEFBD31
:1005C00079D2E0E0EDBDECBDE7BDE6BDEBBDEABD37
:1005D000E9BDE8BDE2BDE5BDE4BDE3BDE9BFE5BF02
:1005E000EAB9E0E8E8B9E0E0E0BFE6B9EDB9E6BFB6
:1005F000A8E08CD0C8DF1FDE7894949AE4E05E2EE9
:10060000E1E05E265BDE28D4829922C0949A8D9820
:1006100095988E9A92DFE03019F4E4E05E2A17C0D4
:10062000E13019F4E9EF5E2212C0E23029F4EBEF79
:100630005E22E2E05E2A0BC0E33011F44ADF07C01D
:10064000E43011F450DF03C0E53009F405DE02C0E8
:10065000FED3BEDED5CFFFCFAA93E8B3E07FAE2FA7
:10066000E881E295EF70EA2BE8BBD5D2C49AD3D2E9
:10067000C498D1D272C0AA93A881EEDFE881E29536
:10068000E883A881E9DF85E88A95F1F766C0AA9337
:10069000E881F0E0E65EFD4FE081A981AE0FEBDF7F
:1006A0004980788022960895A2E0E5DFA3E03CD25D
:1006B000ACE0E1DFA1E0DFDFA3E036D2E0E07E2EB8
:1006C0004E2E0895AA93A881AA3011F0461440F046
:1006D000E0E0EA937394A72DDADFA881AA30E9F16C
:1006E0004394C59AA881C7DFC59837C0ECD11A9347
:1006F000A981BA81ED91A983BA831E2FE03019F048
:10070000A12FE0DFF5CF188123960895AA93E7B3D0
:10071000EF60E7BBBC9ABD9ABE9AC498C598C698CC
:100720006880E881E058E0931C02E881E054E0939F
:100730001D02A4E1F9D173D272D271D2A0E28CDF92
:1007400088EC90E00197F1F7A8E295DFA4E093DF51
:10075000A5E891DFA6E08FDFA7DF21960895B3D14A
:10076000B3D3088519852E813F8160D241F01F9354
:100770000F9363D285D3AF91BF91EC93F6CF10C0A6
:10078000A2D1A2D30E811F81288539854FD241F095
:100790001F930F9352D2EC91AF91BF917DD3F6CFBF
:1007A0009AD32A9608958FD191D34DD212963CD3E5
:1007B0003097F1F048D24AD28F01309761F0023081
:1007C000E0E01E0770F0F80131978F01AA81BB812C
:1007D0001496ED93FC9337D212966FD13197AC817A
:1007E000A08331D221D3FF2312F02DD266D104C0D1
:1007F0002AD2EFEFFFEFF9D170D32596089563D198
:10080000269760D310E0AC85BD85E0E0F0E0EDD147
:10081000EA89FB893196EA8BFB8B3197E4912E2F85
:10082000E03009F4FEC0E12FE03031F4253211F45C
:1008300011E001C00ED2F4C0E130A1F4253211F470
:1008400008D2EDC012E040E000E02D3211F401E0EA
:10085000E7C02B3211F44BE2E3C0203211F440E246
:10086000DFC002C0E23039F450E013E0203311F46D
:100870000068D6C003C0E33009F0D2C0203310F0C6
:100880002A3308F007C0AAE05A9F502DE22FE05308
:100890005E0FC6C0E22FE33639F4E2D1E4D1E0D1F5
:1008A000A481AA93E4D1BBC0E33731F4E6D1E7D108
:1008B000E8D1E6D01E2F08C0E03751F4DED1DFD1F9
:1008C000E0D1E9D01E2F086002600F7730E02EC023
:1008D000E43611F0E93611F4046002C0E53729F47A
:1008E000E6E2F0E0D3D115E00BC0E83511F4086082
:1008F00003C0E83709F093C0E0E3F0E0C7D114E0AB
:1009000002FF11C0BAD1BBD1C4D1AB85AA232AF44E
:10091000EA85FB85E3D1BDD14DE2403011F01F5F88
:1009200001C00B7F03C0A9D1AAD1B3D100FD10C073
:10093000151770F407FF08C002FF04C00B7F242FB7
:10094000115001C020E301C020E283D15150F0CF0B
:10095000312F01FF15C0303091F003FF05C0EE814B
:10096000FF81259193D105C0AE81BF812D91AE83CA
:10097000BF836FD1503009F051503150ECCF46C099
:1009800020E3EE81FF815FD2E887F987EE81FF8166
:1009900032967CD1E885F985AA85BB85AE17BF075D
:1009A00048F02F5FA885B985EA85FB85EA1BFB0B1C
:1009B00070D1F0CF2A3328F003FF02C0295F01C0B5
:1009C000295D04FD19C0213320F4A885B98511974C
:1009D00009F409C0531710F000FF01C011C020E254
:1009E00007FF0AC020E3006102FF06C00B7F4A93A5
:1009F0003ED1503009F051502CD1503009F05150B7
:100A00003150A885B985129708F0BACF00FF07C00A
:100A1000503029F05150E0E2EA9329D1F9CF10E0AB
:100A2000F7CEAC85BD8500D254D264960895FF926E
:100A3000F82E269749D230D1309719F4EFEFFFEF17
:100A40001BC0DE01169637D18D0126D11FD1E0E003
:100A5000E887E987DE011A962ED184D01A930A938B
:100A6000E3EDF3E056D0DE011A96C9DE9F01AE81B8
:100A7000BF81E0E0EC93F9012ED22A96FF90089511
:100A800022D0A991B991EE27FF276D91662311F02D
:100A90003196FBCF089517D0AA27BB27E991F9918A
:100AA0000590002011F01196FBCFFD010895A09153
:100AB000F4010895E0E0EEBD0895ED91FD913196C9
:100AC000FE93EE930895BA93AA930895EA89FB8959
:100AD0003AD163D10895EC81FD816E817F810895C3
:100AE000A889B9890895EAE0F2E0FA93EA93E3E08D
:100AF000F0E0FA93EA93A0E1B0E00895E2E0F2E0DA
:100B0000FA93EA93E3E1F0E0FA93EA93A8E0B0E025
:100B10000895FA93EA930895A1E0B0E0C2C0E0E03E
:100B2000F0E060E070E00895B0E0BBC0E12FAAE023
:100B3000B2E0F0E0F7D0AE0FBF1F7AD10895ED819B
:100B4000FE816F8178850895AD81BE818F81988502
:100B50000895A2E0B2E0F0E0EE0FFF1F0895AE0F9F
:100B6000BF1F089561D1D5CF24971A93152D552411
:100B7000A5DBE983FA836B837C8308959FDBE9839C
:100B8000FA836B837C830895E52DAAE0B2E0F0E060
:100B9000C9D0EA0FFB1FA981BA818B819C8161D1E9
:100BA00008955E2EEBCFE52DAAE0B2E0F0E0BAD0DA
:100BB000D6DF3ED1A981BA818B819C818AD0A9835D
:100BC000BA838B839C83E52DC4CFEA0FFB1F089566
:100BD000A981BA818B819C81E8E098D0A0E0B0E443
:100BE00082E49FE0DFD031960895ED93FC93089561
:100BF000E981FA816B817C81A0E0B0E088EE93E02E
:100C0000D1D031960895E12FA6EFB1E0F0E0EE0FDC
:100C1000FF1FA5DFA7CF8DE08A95F1F70895A0E328
:100C20001BDD88EC90E00197F1F70895EC81FD81E0
:100C30003197EC83FD83319608950F5F1F4FD901E3
:100C40002F5F3F4F0895AA81BB8108951496ECD081
:100C500008952A93AD85BE85EF85F8890995089595
:100C6000E889F98908953497E88BF98B0895AD8563
:100C7000BE85EF85F88909950895F2DFF4CF30DF5E
:100C8000E5CFEE83FF83AE81BF810895EE83FF83BE
:100C90000895EA87FB870895DE011C960CD0C4D026
:100CA0000895109639F0A89580ED97E00197F1F737
:100CB0001197C9F708950024AF0DB01D0895EA0FEC
:100CC000FB1F681F791F0895EA1BFB0B680B790B4C
:100CD0000895AE1BBF0B860B970B0895F195E19518
:100CE000F0400895F09560957095E195FF4F6F4F36
:100CF0007F4F0895EE230E2EFD01BC0131F0759556
:100D00006795F795E7950A94D1F70895EE230E2E8F
:100D1000FD01BC0131F076956795F795E7950A944A
:100D2000D1F70895EE0FFF1FEE0FFF1F0895E62F76
:100D3000F72F6627F7FD6FEF762F08956E2F7F2F21
:100D4000E0E0F0E008956F2F660F660B762F0895B0
:100D50008B2F880F880B982F08957A9F702D6B9F8B
:100D6000700DF89F700DE99F700D6A9F602D710DD9
:100D7000FB9F600D711DE89F600D711D8827FA9F14
:100D8000F02D610D781FEB9FF00D611D781FEA9F1C
:100D9000E02DF10D681F781F089533D0DEDF0EF4CB
:100DA000A1DF08953F934F935F93002411244427BC
:100DB000552730E2AA0FBB1F881F991F001C111C6A
:100DC000441F551F0E1A1F0A460B570B28F40E0E10
:100DD0001F1E461F571F01C0A1603A9559F7FD011C
:100DE000BC01D001CA015F914F913F910895E894F1
:100DF000F7FF02C073DF6894EA23FB230EF46EDF73
:100E00000895E89477FF02C06DDF689497FF0BC0E8
:100E10000024A095B095809590951196801D901D09
:100E200000F8039400FA0895ED91FC91119708954C
:100E3000ED91FD916D917C9113970895ED93FD9344
:100E40006D937C9308950590F491E02D0895A88109
:100E5000B9818A819B810895E883F9836A837B83C2
:100E60000895A083B1838283938308957A936A93CC
:100E7000FA93EA9308959A938A93BA93AA9308955A
:100E8000E199FECFFF93FFB7F894AEBBBFBBE09AEA
:100E9000EDB3FFBFFF910895E19B02C0A895FCCF81
:100EA0009FB7F894AEBBBFBBE09A8DB3E81719F0BB
:100EB000EDBBE29AE19A9FBF0895EA17FB07680726
:100EC000790708955A934A933A932A931A930A9367
:100ED00008955D814C813B812A81198108810895A3
:00000001FF
