:060000000C94BD000C94FD
:1000060000000C9400000C9400000C9400000C946A
:1000160000000C9400000C9400000C9409010C9450
:1000260000000C9400000C9400000C9400000C944A
:1000360000000C9400000C9400000C94EA000C9450
:1000460000000C9400000C9400000C940000102793
:10005600E80364000A00010000100001100001001E
:100066000400706E756D200000CA9A3B00E1F5052C
:100076008096980040420F00A086010010270000DD
:10008600E8030000640000000A00000001006001AF
:100096006C01780184019401A401B6535C24DF4B02
:1000A600F52052616E67653A204175746F005261A2
:1000B6006E67653A204C6F77200052616E67653A2D
:1000C60020486967680043616C6962726174653AC9
:1000D600205A65726F0043616C6962726174653A99
:1000E600203120754600536176652063616C696234
:1000F600726174696F6E004175746F2000466F728D
:10010600636500206869676800206C6F77200000CF
:1001160080C00100050066000500CD0168002500CD
:10012600D2016E000C006001A8000C006C01B40046
:100136000C007801C00010008401CC00100094016E
:10014600DC001100A401EC000C001E029400080063
:100156002A02A0000600B501FD000600BB0103014E
:100166000600C10109010600C7010F010200420293
:1001760016010000F894EE27ECBBF1E0FBBFEBBFE5
:10018600E5BF8DE0A2E0BB27ED938A95E9F780E015
:1001960094E0A0E6ED930197E9F7E8E1F1E08591B7
:1001A6009591009761F0A591B59105901590BF01C5
:1001B600F00105900D920197E1F7FB01F0CFEFE515
:1001C600EDBFE4E0EEBFC0E6D1E00C94C003AA9315
:1001D600EA93EFB7EA93A0911C02A13039F4E1E06B
:1001E600EEBDE0911D02E7B9E2E009C0A0911C0254
:1001F600A23039F4459B05C0E0E0EEBDE3E0E093B4
:100206001C02E991EFBFE991A9911895AA93BA93B7
:10021600EA93FA93EFB7EA93AAE1B2E0ED91FD9182
:100226003196FE93EE93E991EFBFF991E991B99179
:10023600A9911895BA93AA9328970E947906E889F6
:10024600F9898F01E889F9896A897B890E94D10534
:100256009F01D8010E94E1040E94D105E887F98731
:100266006A877B87D9010E94E104EC83FD836E8354
:100276007F83E885F9856A857B850E94EA040E946A
:10028600AD05AC85BD850E9434060E947E06649647
:100296000895A1E0B0E00E945206E33409F0089503
:1002A600A2E0B0E00E945206E43409F008950E94EC
:1002B600EF040E94AC040E94FA040E94AC04089564
:1002C600A1E0B0E0E3E40E945E06A2E0B0E0E4E470
:1002D6000E945E060E94EF040E94C5040E94FA0472
:1002E6000E94C5040895AA931A930A93AA81A0317D
:1002F60010F0E1E001C0E0E01E2FEA81F0E0AFE09F
:10030600B0E00E9420060E2F0A93A12F0E943F0400
:10031600AB81BC810E946D0419810881EEC10E94E7
:100326004D060E94790600E030E020E010E01A3029
:1003360010F4053008F050C03030C1F0E12FF0E085
:10034600E130A0E0FA0711F42F5F04C0E430A0E02A
:10035600FA0711F42F5F04C0E730A0E0FA0731F482
:100366002F5F0E940505EEE2EC930F5F0E940B05DE
:10037600A8F4303021F00E940505E0E30CC01630E9
:1003860028F00E940505E0E2EC930F5F163029F491
:100396000E940505E0E2EC930F5F1CC00E94050574
:1003A600E0E3EC930E940B0598F00E940505EC91A2
:1003B600EF5FEC93E12FA2EDB1E00E9419050E94D8
:1003C600EA040E94B705AC83BD838E839F83EACF80
:1003D6000F5F31E01F5FABCFE22F0C94DD041A9361
:1003E6000A93E0E0E0931C02E1E0E7B9C198B99A0C
:1003F600BA980E942105829903C00E94250589C0EA
:10040600459B06C0BA9AAAE0B0E00E94A305F0CFC9
:10041600BA9AA4E6B0E00E94A305E0E0EEBDE0E0F3
:10042600F0E0FDBDECBDE0931A02E0931B02B99823
:10043600C198E1E0E0931C0250FE02C0E3E001C077
:10044600E2E0E0931D02C098BA9852FE28C000E090
:1004560010E0A0911C02A13039F4F80131968F0109
:10046600E43FA1E0FA0708F008C00E94210582993E
:1004760003C00E9425054DC0ECCF043FE1E01E07F6
:1004860058F0BA9AA4E6B0E00E94A305BA98C19AB9
:10049600B99AE2E05E2A02C0EDEF5E2204C051FE88
:1004A60002C0C19AB99A00E010E0A0911C02A330E4
:1004B60039F0F80131968F01E031A7E2FA0708F02A
:1004C60008C00E942105829903C00E94250521C00B
:1004D600ECCFB998C198BA9AC09AA0911C02A330E1
:1004E60019F0E8E05E2A02C0E7EF5E22E0E0E09362
:1004F6001C02E0911A02F0911B02662777270E94E0
:10050600D605DF01CB01ECB5FDB5662777270E943E
:10051600AD050991199108950E944D0624971A93E5
:1005260052FE03C0E5EBF1E002C0EBEBF1E0FA931B
:10053600EA93A0E0D8DE51FE03C0E1ECF1E002C090
:10054600E7ECF1E0FA93EA93A0E1CDDE53FE17C0A3
:10055600E0E2E093FA01E093FB01E093FC01E5E4BD
:10056600E093FD01E2E7E093FE01E093FF01EFE691
:10057600E0930002E2E7E0930102E0E252C0E52DDB
:10058600E3701E2F0E942A05DF01CB01ED81FE815B
:100596006F8178850E946F0680F4EDE2E093FA01A0
:1005A6000E942A05AD81BE818F8198850E94B20581
:1005B600ED83FE836F8378870FC0E0E2E093FA0154
:1005C6000E942A05AD81BE818F8198850E94B7055C
:1005D600AD83BE838F839887ED81FE816F81788599
:1005E6000E944806E12F0E942E050E943405DE0176
:1005F600179620DEEBEFF1E0FA93EA93AB81BC812C
:100606008D819E818CDE1E2F51FC1F5FE0E2E09300
:100616000002E12FF0E0E353FE4FE081E093010298
:10062600E6E4E0930202E0E0E093030250FE02C03B
:1006360017E001C017E1EAEFF1E0FA93EA93A12F80
:1006460052DE1881299608950E943B050E944605B0
:100656000E944D05E1E05E2E0E9446050E94460579
:100666000E944D0548C00E943B050E945C050E9401
:1006760060050E946505EA0FFB1FFF93EF930E943A
:100686006D05AF91BF91ED93FC93E1E05E2E0E9464
:1006960046050E945C050E947905EA0FFB1FFF9341
:1006A600EF930E946D05AF91BF91ED93FC93E2E04D
:1006B6005E2E0E9446050E945C050E947905EA0F9F
:1006C600FB1FFF93EF930E947B05AF91BF91ED93C4
:1006D600FC93E3E05E2E0E9446050E945C050E94A4
:1006E6007905EA0FFB1FFF93EF930E947B05AF91FD
:1006F600BF91ED93FC93512E1881259608951A9378
:10070600C8D010E0163060F40E948705A0E0EBDD4B
:10071600A0E2B3E00E94A305829902C01F5FF2CF58
:10072600163029F4B6D0829BFECFAAE00FC0B1D016
:10073600A8ECB0E00E94A3050E948705A0E0D3DDE7
:10074600A0E9B1E00E94A305A4D0A8ECB0E00E9405
:10075600A305E12F19910895E1E0E7BBC298929AAB
:10076600E0E0EFBDEEBDE4E0E9BFEBE0E8B9E1E0D3
:10077600E7B9E0B7E860E0BF08952497E0E0EABB98
:10078600EBBBE7BBE8BBEFEFE4BBE0E0E5BBE1BBFF
:10079600E2BBE3BFE2BFECBFEFBDEEBDEDBDECBD1E
:1007A600E7BDE6BDEBBDEABDE9BDE8BDE2BDE5BD21
:1007B600E4BDE3BDE9BFE5BFE4BFEAB9E0E8E8B9F7
:1007C600E0E0E0BFE6B9EDB9E6BFA0E194D0C4DF52
:1007D60060DD7894C09AE4E05E2EE1E05E26FFDDFF
:1007E6000E943E06829922C0C09AB998C198BA9AC8
:1007F60086DFE03019F4E4E05E2A17C0E13019F430
:10080600E9EF5E2212C0E23029F4EBEF5E22E2E06D
:100816005E2A0BC0E33011F417DF07C0E43011F491
:1008260022DF03C0E53009F44BDD03C00E94390620
:1008360073DED3CFFFCFAA93E5B3E07FAE2FE88177
:10084600E295EF70EA2BE5BB82E18A95F1F7AC9A67
:1008560082E18A95F1F7AC9882E18A95F1F777C043
:10086600AA93A881E8DFE881E295E883A881E3DF1F
:1008760088EB8A95F1F76BC0AA93E881F0E0EE5B0E
:10088600FD4FE081A981AE0FEBDF4980788022968B
:100896000895A2E00E948E05ACE0E2DFA1E00E948E
:1008A6008E05E0E07E2E4E2E0895AA93A881AA30EA
:1008B60011F0461448F0E0E0EA937394A72DDCDFCC
:1008C600A881AA3009F443C04394AD9AA881C8DF31
:1008D600AD983DC0BA93AA931A93A981BA81ED91B6
:1008E600A983BA831E2FE03019F0A12FDEDFF5CFE2
:1008F600188123960895AA93E4B3EF60E4BBA49A03
:10090600A59AA69AAC98AD98AE986880E881E0580A
:10091600E0934402E881E054E0934502A4E1B0E0AC
:100926000E94A3050E9494050E9494050E949405C6
:10093600A0E281DF84E191E00197F1F7A8E290DF80
:10094600A4E08EDFA5E88CDFA6E08ADFA2DF219691
:100956000895BA93AA930E947906088519852E816F
:100966003F810E949C0569F01F930F930F5F1F4FF5
:10097600D9012F5F3F4F0E945206AF91BF91EC9372
:10098600F0CF18C0BA93AA930E9479060E811F81F0
:10099600288539850E949C0569F01F930F930F5F88
:1009A6001F4FD9012F5F3F4FEC91AF91BF910E942E
:1009B6005E06F0CF0E947E062A960895882799271C
:1009C600EE85FF85662777270E94DB050895AC81B3
:1009D600BD818E819F810895E2E3F2E0FA93EA9366
:1009E600E3E0F0E0FA93EA93A0E1B0E00895EAE2EA
:1009F600F2E0FA93EA93E3E1F0E0FA93EA93A8E0EF
:100A0600B0E00895A885B985EE27A00FBE1F08950A
:100A1600E12FA2EDB1E0F0E00E94CC05AE0FBF1FC2
:100A26000E942E06D4DF0E9474060895F0E00E940C
:100A3600CC05AE0FBF1F0E942E060895A1E0B0E0C0
:100A46000C94A305E0E0F0E060E070E00895E12F8B
:100A5600A2E3B2E0EBCFAAE2B2E0F0E0EE0FFF1FB6
:100A66000895AE0FBF1F0E942A06FA93EA930895CF
:100A760024971A93152D55240E94F201E983FA83CF
:100A86006B837C8308950E94F201E983FA836B836A
:100A96007C830895E52DA2E3B2E0F0E00E94CC0548
:100AA600EA0FFB1FA981BA818B819C810E944306B4
:100AB6000895E52DA2E3B2E0B9CFA981BA818B8171
:100AC6009C8108950E94B705A983BA838B839C8372
:100AD600E52DC1CFF2DFE8E00E94C005A0E0B0E45A
:100AE60082E49FE00E94FB0531960895E6DFEACF97
:100AF600E981FA816B817C81A0E0B0E088EE93E029
:100B06000E94FB0531960895E12FAEE1B2E0F0E0D8
:100B1600EE0FFF1FA6CF0E943304A3E0B0E00C94B3
:100B2600A305A0E30E941E0484E191E00197F1F77A
:100B36000895EC81FD813197EC83FD83319608950C
:100B4600109639F0A8958DEC9AE00197F1F7119778
:100B5600C9F70895EA0FFB1F681F791F0895EA1B5E
:100B6600FB0B680B790B0895AE1BBF0B860B970B1F
:100B76000895F195E195F0400895EE230E2EFD01BE
:100B8600BC0131F076956795F795E7950A94D1F70C
:100B96000895EE0FFF1FEE0FFF1F0895E62FF72FA4
:100BA60060E070E008956E2F7F2FE0E0F0E008959A
:100BB6007A9F702D6B9F700DF89F700DE99F700DD9
:100BC6006A9F602D710DFB9F600D711DE89F600D82
:100BD600711D8827FA9FF02D610D781FEB9FF00D90
:100BE600611D781FEA9FE02DF10D681F781F08959B
:100BF6003F934F935F93002411244427552730E2F7
:100C0600AA0FBB1F881F991F001C111C441F551FCC
:100C16000E1A1F0A460B570B28F40E0E1F1E461FF0
:100C2600571F01C0A1603A9559F7FD01BC01D001DB
:100C3600CA015F914F913F910895E894F7FF02C072
:100C460098DF6894EA23FB230EF493DF0895ED9171
:100C5600FC9111970895ED91FD916D917C911397FB
:100C66000895ED93FD936D937C930895A881B981C2
:100C76008A819B810895E883F9836A837B8308953B
:100C8600A083B1838283938308957A936A93FA93B8
:100C9600EA9308959A938A93BA93AA930895E19949
:100CA600FECFFF93FFB7F894AEBBBFBBE09AEDB3A0
:100CB600FFBFFF910895E19B02C0A895FCCF9FB7A7
:100CC600F894AEBBBFBBE09A8DB3E81719F0EDBB45
:100CD600E29AE19A9FBF0895EA17FB07680779072A
:100CE6000895AE17BF078607970708953A932A9384
:100CF6001A930A9308953B812A81198108810895E0
:00000001FF
