:0A0000000C94BD000C9400000C9459
:10000A0000000C9400000C9400000C9400000C9466
:10001A0000000C9400000C9409010C9400000C944C
:10002A0000000C9400000C9400000C9400000C9446
:10003A0000000C9400000C94EA000C9400000C944C
:10004A0000000C9400000C9400001027E8036400E0
:10005A000A00010000100001100001000400706E87
:10006A00756D200000CA9A3B00E1F505809698005C
:10007A0040420F00A086010010270000E80300009C
:10008A00640000000A000000010060016C017801B0
:10009A0084019401A401B6535C24DF4BF52052611C
:1000AA006E67653A204175746F0052616E67653AF2
:1000BA00204C6F77200052616E67653A2048696765
:1000CA00680043616C6962726174653A205A6572AC
:1000DA006F0043616C6962726174653A2031207500
:1000EA004600536176652063616C69627261746966
:1000FA006F6E004175746F2000466F726365002051
:10010A006869676800206C6F7720000080C0010072
:10011A00050066000500CD0168002500D2016E00C9
:10012A000C006001A8000C006C01B4000C007801FE
:10013A00C00010008401CC0010009401DC00110002
:10014A00A401EC000C001E02940008002A02A00080
:10015A000600B501FD000600BB0103010600C1014E
:10016A0009010600C7010F01020042021601000040
:10017A00F894EE27ECBBF1E0FBBFEBBFE5BF8DE0E7
:10018A00A2E0BB27ED938A95E9F780E094E0A0E628
:10019A00ED930197E9F7E8E1F1E0859195910097F0
:1001AA0061F0A591B59105901590BF01F0010590F8
:1001BA000D920197E1F7FB01F0CFEFE5EDBFE4E027
:1001CA00EEBFC0E6D1E00C94BC03AA93EA93EFB762
:1001DA00EA93A0911C02A13039F4E1E0EEBDE0916E
:1001EA001D02E7B9E2E009C0A0911C02A23039F46D
:1001FA00459B05C0E0E0EEBDE3E0E0931C02E99117
:10020A00EFBFE991A9911895AA93BA93EA93FA9341
:10021A00EFB7EA93AAE1B2E0ED91FD913196FE9330
:10022A00EE93E991EFBFF991E991B991A9911895E6
:10023A00BA93AA9328970E947B06E889F9898F01C5
:10024A00E889F9896A897B890E94D3059F01D801C7
:10025A000E94DF040E94D305E887F9876A877B87B3
:10026A00D9010E94DF04EC83FD836E837F83E885D6
:10027A00F9856A857B850E94E8040E94AF05AC85F2
:10028A00BD850E9436060E94800664960895A1E004
:10029A00B0E00E945406E33409F00895A2E0B0E009
:1002AA000E945406E43409F008950E94ED040E9465
:1002BA00AA040E94F8040E94AA040895A1E0B0E0EA
:1002CA00E3E40E946006A2E0B0E0E4E40E94600673
:1002DA000E94ED040E94C3040E94F8040E94C30411
:1002EA000895AA931A930A93AA81A03110F0E1E023
:1002FA0001C0E0E01E2FEA81F0E0AFE0B0E00E942A
:10030A0022060E2F0A93A12F0E943D04AB81BC81C5
:10031A000E946B0419810881EAC10E944F060E945B
:10032A007B0600E030E020E010E01A3010F40530DF
:10033A0008F050C03030C1F0E12FF0E0E130A0E029
:10034A00FA0711F42F5F04C0E430A0E0FA0711F4B1
:10035A002F5F04C0E730A0E0FA0731F42F5F0E9454
:10036A000305EEE2EC930F5F0E940905A8F4303012
:10037A0021F00E940305E0E30CC0163028F00E9429
:10038A000305E0E2EC930F5F163029F40E9403059F
:10039A00E0E2EC930F5F1CC00E940305E0E3EC93DC
:1003AA000E94090598F00E940305EC91EF5FEC9317
:1003BA00E12FA2EDB1E00E9417050E94E8040E9415
:1003CA00B905AC83BD838E839F83EACF0F5F31E08B
:1003DA001F5FABCFE22F0C94DB041A930A93E0E081
:1003EA00E0931C02E1E0E7B9C198B99ABA980E9471
:1003FA001F05829903C00E94230585C0459B06C03C
:10040A00BA9AAAE0B0E00E94A505F0CFBA9A0E9473
:10041A002805E0E0EEBDE0E0F0E0FDBDECBDE093D4
:10042A001A02E0931B02B998C198E1E0E0931C021A
:10043A0050FE02C0E3E001C0E2E0E0931D02C09872
:10044A00BA9852FE26C000E010E0A0911C02A1302A
:10045A0039F4F80131968F01E43FA1E0FA0708F078
:10046A0008C00E941F05829903C00E9423054BC041
:10047A00ECCF043FE1E01E0748F0BA9A0E94280533
:10048A00BA98C19AB99AE2E05E2A02C0EDEF5E22FA
:10049A0004C051FE02C0C19AB99A00E010E0A091CE
:1004AA001C02A33039F0F80131968F01E031A7E23E
:1004BA00FA0708F008C00E941F05829903C00E942B
:1004CA00230521C0ECCFB998C198BA9AC09AA091D5
:1004DA001C02A33019F0E8E05E2A02C0E7EF5E22B0
:1004EA00E0E0E0931C02E0911A02F0911B026627F9
:1004FA0077270E94D805DF01CB01ECB5FDB5662749
:10050A0077270E94AF050991199108950E944F0615
:10051A0024971A9352FE03C0E5EBF1E002C0EBEB1D
:10052A00F1E0FA93EA93A0E0DCDE51FE03C0E1ECCD
:10053A00F1E002C0E7ECF1E0FA93EA93A0E1D1DE40
:10054A0053FE17C0E0E2E093FA01E093FB01E09367
:10055A00FC01E5E4E093FD01E2E7E093FE01E093AC
:10056A00FF01EFE6E0930002E2E7E0930102E0E236
:10057A0052C0E52DE3701E2F0E942C05DF01CB012E
:10058A00ED81FE816F8178850E94710680F4EDE22B
:10059A00E093FA010E942C05AD81BE818F81988576
:1005AA000E94B405ED83FE836F8378870FC0E0E273
:1005BA00E093FA010E942C05AD81BE818F81988556
:1005CA000E94B905AD83BE838F839887ED81FE8132
:1005DA006F8178850E944A06E12F0E9430050E94A9
:1005EA003605DE01179624DEEBEFF1E0FA93EA9383
:1005FA00AB81BC818D819E8190DE1E2F51FC1F5FD5
:10060A00E0E2E0930002E12FF0E0E353FE4FE081E5
:10061A00E0930102E6E4E0930202E0E0E0930302E1
:10062A0050FE02C017E001C017E1EAEFF1E0FA93C9
:10063A00EA93A12F56DE1881299608950E943D0556
:10064A000E9448050E944F05E1E05E2E0E9448057F
:10065A000E9448050E944F0548C00E943D050E941D
:10066A005E050E9462050E946705EA0FFB1FFF9361
:10067A00EF930E946F05AF91BF91ED93FC93E1E078
:10068A005E2E0E9448050E945E050E947B05EA0FC5
:10069A00FB1FFF93EF930E946F05AF91BF91ED93FC
:1006AA00FC93E2E05E2E0E9448050E945E050E94CD
:1006BA007B05EA0FFB1FFF93EF930E947D05AF9125
:1006CA00BF91ED93FC93E3E05E2E0E9448050E94E1
:1006DA005E050E947B05EA0FFB1FFF93EF930E94C2
:1006EA007D05AF91BF91ED93FC93512E188125960C
:1006FA0008951A93CAD010E0163060F40E94890552
:10070A00A0E0EFDDA0E2B3E00E94A505829902C055
:10071A001F5FF2CF163029F4B8D0829BFECFAAE031
:10072A000FC0B3D0A8ECB0E00E94A5050E948905CD
:10073A00A0E0D7DDA0E9B1E00E94A505A6D0A8EC0B
:10074A00B0E00E94A505E12F19910895E1E0E7BB09
:10075A00C298929AE0E0EFBDEEBDE4E0E9BFEBE0BB
:10076A00E8B9E1E0E7B9E0B7E860E0BF08952497A7
:10077A00E0E0EABBEBBBE7BBE8BBEFEFE4BBE0E0E2
:10078A00E5BBE1BBE2BBE3BFE2BFECBFEFBDEEBD41
:10079A00EDBDECBDE7BDE6BDEBBDEABDE9BDE8BD1B
:1007AA00E2BDE5BDE4BDE3BDE9BFE5BFE4BFEAB92B
:1007BA00E0E8E8B9E0E0E0BFE6B9EDB9E6BFA0E1FC
:1007CA0096D00E942805C2DF62DD7894C09AE4E0E0
:1007DA005E2EE1E05E2601DE0E944006829922C07A
:1007EA00C09AB998C198BA9A84DFE03019F4E4E063
:1007FA005E2A17C0E13019F4E9EF5E2212C0E23036
:10080A0029F4EBEF5E22E2E05E2A0BC0E33011F43A
:10081A0015DF07C0E43011F420DF03C0E53009F426
:10082A004DDD03C00E943B0671DED3CFFFCFAA93F2
:10083A00E5B3E07FAE2FE881E295EF70EA2BE5BBE6
:10084A008DE08A95F1F7AC9A8DE08A95F1F7AC982C
:10085A008DE08A95F1F777C0AA93A881E8DFE8814D
:10086A00E295E883A881E3DF85E88A95F1F76BC012
:10087A00AA93E881F0E0EE5BFD4FE081A981AE0F1B
:10088A00EBDF4980788022960895A2E00E949005C5
:10089A00ACE0E2DFA1E00E949005E0E07E2E4E2E61
:1008AA000895AA93A881AA3011F0461448F0E0E00E
:1008BA00EA937394A72DDCDFA881AA3009F443C018
:1008CA004394AD9AA881C8DFAD983DC0BA93AA9364
:1008DA001A93A981BA81ED91A983BA831E2FE030B8
:1008EA0019F0A12FDEDFF5CF188123960895AA9378
:1008FA00E4B3EF60E4BBA49AA59AA69AAC98AD9823
:10090A00AE986880E881E058E0934402E881E054B8
:10091A00E0934502A4E1B0E00E94A5050E94960575
:10092A000E9496050E949605A0E281DF88EC90E07D
:10093A000197F1F7A8E290DFA4E08EDFA5E88CDF4B
:10094A00A6E08ADFA2DF21960895BA93AA930E94AD
:10095A007B06088519852E813F810E949E0569F0D4
:10096A001F930F930F5F1F4FD9012F5F3F4F0E94B5
:10097A005406AF91BF91EC93F0CF18C0BA93AA93E3
:10098A000E947B060E811F81288539850E949E055B
:10099A0069F01F930F930F5F1F4FD9012F5F3F4FCE
:1009AA00EC91AF91BF910E946006F0CF0E94800641
:1009BA002A96089588279927EE85FF85662777273F
:1009CA000E94DD050895AC81BD818E819F810895C5
:1009DA00E2E3F2E0FA93EA93E3E0F0E0FA93EA93CF
:1009EA00A0E1B0E00895EAE2F2E0FA93EA93E3E1E3
:1009FA00F0E0FA93EA93A8E0B0E00895A885B985F3
:100A0A00EE27A00FBE1F0895E12FA2EDB1E0F0E09E
:100A1A000E94CE05AE0FBF1F0E943006D4DF0E948F
:100A2A0076060895F0E00E94CE05AE0FBF1F0E9421
:100A3A0030060895A1E0B0E00C94A505E0E0F0E0EE
:100A4A0060E070E00895A4E6B0E00C94A505E12FFB
:100A5A00A2E3B2E0E7CFAAE2B2E0F0E0EE0FFF1FB6
:100A6A000895AE0FBF1F0E942C06FA93EA930895C9
:100A7A0024971A93152D55240E94F201E983FA83CB
:100A8A006B837C8308950E94F201E983FA836B8366
:100A9A007C830895E52DA2E3B2E0F0E00E94CE0542
:100AAA00EA0FFB1FA981BA818B819C810E944506AE
:100ABA000895E52DA2E3B2E0B5CFA981BA818B8171
:100ACA009C8108950E94B905A983BA838B839C836C
:100ADA00E52DC1CFF2DFE8E00E94C205A0E0B0E454
:100AEA0082E49FE00E94FD0531960895E6DFEACF91
:100AFA00E981FA816B817C81A0E0B0E088EE93E025
:100B0A000E94FD0531960895E12FAEE1B2E0F0E0D2
:100B1A00EE0FFF1FA6CF0E943104A3E0B0E00C94B1
:100B2A00A505A0E30E941C0488EC90E00197F1F768
:100B3A000895EC81FD813197EC83FD833196089508
:100B4A00109639F0A89580ED97E00197F1F7119783
:100B5A00C9F70895EA0FFB1F681F791F0895EA1B5A
:100B6A00FB0B680B790B0895AE1BBF0B860B970B1B
:100B7A000895F195E195F0400895EE230E2EFD01BA
:100B8A00BC0131F076956795F795E7950A94D1F708
:100B9A000895EE0FFF1FEE0FFF1F0895E62FF72FA0
:100BAA0060E070E008956E2F7F2FE0E0F0E0089596
:100BBA007A9F702D6B9F700DF89F700DE99F700DD5
:100BCA006A9F602D710DFB9F600D711DE89F600D7E
:100BDA00711D8827FA9FF02D610D781FEB9FF00D8C
:100BEA00611D781FEA9FE02DF10D681F781F089597
:100BFA003F934F935F93002411244427552730E2F3
:100C0A00AA0FBB1F881F991F001C111C441F551FC8
:100C1A000E1A1F0A460B570B28F40E0E1F1E461FEC
:100C2A00571F01C0A1603A9559F7FD01BC01D001D7
:100C3A00CA015F914F913F910895E894F7FF02C06E
:100C4A0098DF6894EA23FB230EF493DF0895ED916D
:100C5A00FC9111970895ED91FD916D917C911397F7
:100C6A000895ED93FD936D937C930895A881B981BE
:100C7A008A819B810895E883F9836A837B83089537
:100C8A00A083B1838283938308957A936A93FA93B4
:100C9A00EA9308959A938A93BA93AA930895E19945
:100CAA00FECFFF93FFB7F894AEBBBFBBE09AEDB39C
:100CBA00FFBFFF910895E19B02C0A895FCCF9FB7A3
:100CCA00F894AEBBBFBBE09A8DB3E81719F0EDBB41
:100CDA00E29AE19A9FBF0895EA17FB076807790726
:100CEA000895AE17BF078607970708953A932A9380
:100CFA001A930A9308953B812A81198108810895DC
:00000001FF
