S01700004763634170706C69636174696F6E332E7372656359
S113000012C02CC02BC02AC029C028C027C026C0BB
S113001081C124C023C022C021C020C01FC01EC073
S113002057C11CC01BC011241FBECFE5D4E0DEBFE6
S1130030CDBF11E0A0E6B0E0E4ECF0E102C0059031
S11300400D92A636B107D9F721E0A6E6B1E001C0CA
S11300501D92AA39B207E1F7A0D432C8D1CF0097D4
S113006031F0A0EDB7E01197F1F70197D1F70895BA
S11300701F93CF93DF93C82F162F8111C0E2812FD6
S113008082958F708C2B88BBC49AD5E08D2F8A956E
S1130090F1F7C49882E090E0E2DF1F70C12BC8BB87
S11300A0C49ADA95F1F7C49882E090E0D8DFDF9142
S11300B0CF911F91089518BA8FEF87BB82E390E028
S11300C0CEDF63E380E0D4DF62E380E0D1DF68E287
S11300D080E0CEDF68E080E0CBDF6CE080E0C8DF6A
S11300E061E080E0C5DF66E080E0C2DF089561E0A2
S11300F080E0BEDF0895FF920F931F93CF93DF93A9
S1130100D82FF92EC62F603138F460E86C0F80E0E8
S1130110AFDF0D2F1F2D11C06032A0F460EB6C0F08
S113012080E0A6DFF6CFC03268F481E0A1DFCF5FC4
S1130130C03119F460EC80E09BDFF80161918F011C
S11301406111F1CFDF91CF911F910F91FF9008952D
S11301506F927F928F929F92AF92BF92CF92DF92D3
S1130160EF92FF920F931F93CF93DF933C0120E014
S113017031E080E010E090E06894CC24C5F80F2EC4
S1130180F0E3FF2EF02DEE24E3940F2EFEE2DF2E9B
S1130190F02D112309F479C0243029F0273021F0FF
S11301A02130D9F48F5F8F5F8F5FF301E90FF11D69
S11301B0D0829F5FA22FB0E0FD01EE0FFF1FEE0F74
S11301C0FF1FE05AFF4F80809180A280B3804815C2
S11301D059056A057B0598F027C0A22FB0E0FD0100
S11301E0EE0FFF1FEE0FFF1FE05AFF4F808091803C
S11301F0A280B380481559056A057B05A8F4F3016C
S1130200E90FF11DF0829F5F38C0263028F0F3011A
S1130210E90FF11DC0829F5F263079F5F301E90FE4
S1130220F11DC0829F5F2BC0F301E90FF11DF08225
S11302308D01000F111F000F111F005A1F4FE801FD
S113024088809980AA80BB80481559056A057B057A
S113025090F0D80110811F5F10838D909D90AD9018
S1130260BC901397481959096A097B09481559051F
S11302706A057B0578F79F5F1E2D3A30D0F43F5F07
S11302802F5F953008F485CF14C0A22FB0E0FD0194
S1130290EE0FFF1FEE0FFF1FE05AFF4F808091808B
S11302A0A280B380481559056A057B0508F4ADCFD3
S11302B0BBCFDF91CF911F910F91FF90EF90DF9013
S11302C0CF90BF90AF909F908F907F906F90089544
S11302D01F920F920FB60F9211248F938091770182
S11302E0813041F48EBD8091760187B982E080939C
S11302F077010AC080917701823031F4459B04C0B4
S11303001EBC83E0809377018F910F900FBE0F90F6
S11303101F9018951F920F920FB60F9211248F936E
S11303209F9380917801909179010196909379013E
S1130330809378019F918F910F900FBE0F901F9023
S1130340189581E090E067D6833499F482E090E0D8
S113035062D6843471F440E150E063E070E086E6F4
S113036091E049D648E050E063E170E088E890E02D
S113037042D6089563E481E090E05ED664E482E0CE
S113038090E05AD640E150E063E070E086E691E008
S11303904AD648E050E063E170E088E890E043D654
S11303A00895CF92DF92EF92FF920F931F93CF9312
S11303B0DF93CDB7DEB764970FB6F894DEBF0FBEF8
S11303C0CDBF1092770181E087B995988D9A09EE97
S11303D013E00F2EF8EBCF2EF0E0DF2EF02DCE0140
S11303E001967C0160E082EA90E085DE8AE090E09C
S11303F036DE8E9885E090E032DE829908C060E0B7
S113040082EB90E078DE8AE090E029DE21C088B1BA
S11304101F928F93DF92CF92FF92EF924BD360E0C3
S1130420C70169DE8AE090E01ADE0F900F900F900A
S11304300F900F900F90459B0FC08E9A8AE090E02A
S11304400EDE0150110971F660E081EC90E053DE9C
S113045060E070E0CB01A8C060E080ED90E04BDE8E
S11304608AE090E0FCDD8E9A84E690E0F8DD1EBC24
S11304701DBC1CBC10927901109278018D9895983E
S113048081E08093770180919C0080FF04C083E029
S11304908093760103C082E08093760194988E98CD
S11304A080919C0082FD11C033C081E090E0D7DDD3
S11304B082990DC060E081EE90E01DDE8AE090E05C
S11304C0CEDD60E070E0CB016FC000E010E0809111
S11304D07701813039F40F5F1F4F043F91E0190712
S11304E021F703C0043F114068F08E9A84E690E03F
S11304F0B6DD8E98959A8D9A80919C008260809347
S11305009C001BC080919C008D7F80939C0015C033
S113051081FF13C0959A8D9A10C081E090E09FDD11
S113052082990DC060E088EE90E0E5DD8AE090E01D
S113053096DD60E070E0CB0137C000E117E2809106
S11305407701833019F00150110939F78D98959886
S11305508E9A949A80917701833031F080919C0037
S1130560886080939C0005C080919C00877F809365
S11305709C001092770160E08FEE90E0BCDD8AE091
S113058090E06DDD60917801709179012CB53DB5F5
S1130590CB01A0E0B0E0DC0199278827BC01CD01A4
S11305A0620F731F811D911D64960FB6F894DEBF10
S11305B00FBECDBFDF91CF911F910F91FF90EF90B0
S11305C0DF90CF900895CF92DF92EF92FF920F9336
S11305D01F936B017C0180919C0082FF05C060E049
S11305E085EF90E088DD04C060E08BEF90E083DD70
S11305F080919C0081FF05C060E181E091E07BDD9A
S113060004C060E187E091E076DD80919C0083FF87
S113061011C0EAE7F1E080E280838183828395E47C
S1130620938392E7948395832FE626839783808729
S113063011866CC0837090E0FC01EE0FFF1FEE0F7B
S1130640FF1FEA59FE4F4081518162817381C416B4
S1130650D506E606F70660F42DE220937A018A01B6
S11306609B010C191D092E093F096801790107C076
S113067020E220937A01C41AD50AE60AF70A880F01
S1130680991FFC01E857FF4F808191816627552708
S11306904427C89E712DC99E700D411D561FD89EBA
S11306A0700D411D561FD99E400D511D661FE89EB9
S11306B0400D511D08F463957727E99E500D611D87
S11306C008F47395F89E500D611D08F47395F99E16
S11306D0600D711D11248BE791E03ADD90919C002F
S11306E091FD8F5FAAE7B1E090E216969C9316976E
S11306F0E82FF0E0E356FF4F808117968C9317970D
S113070086E418968C93189719961C9280919C00F5
S113071080FD02C067E101C067E08AE791E0EBDC9D
S11307201F910F91FF90EF90DF90CF900895CF939A
S1130730C0919C0010929C0034DE33DEE0919C005A
S1130740F0E0EE0FFF1FEE0FFF1FEA59FE4F60832C
S113075071838283938381E080939C0022DE21DE77
S1130760E0919C00F0E0EE0FFF1FEE0FFF1FEA592F
S1130770FE4F6083718382839383C0939C00CF91E7
S113078008958F929F92AF92BF92CF92DF92EF9291
S1130790FF921F93CF93DF9310919C0010929C00C3
S11307A000DE20919C0030E0E901CC0FDD1FC8572A
S11307B0DF4F220F331F220F331FF901EA59FE4F77
S11307C0C080D180E280F380DC01CB018C199D09CB
S11307D0AE09BF09292F3A2F4B2F55270F2EC12CB5
S11307E0F0E4DF2EF2E4EF2EFFE0FF2EF02DC70140
S11307F0B6013ED12F5F3F4F3983288381E0809338
S11308009C00CFDD20919C0030E0E901CC0FDD1F7E
S1130810C857DF4F220F331F220F331FF901EA5944
S1130820FE4F80809180A280B380DC01CB018819C7
S11308309909AA09BB09292F3A2F4B2F5527C7011C
S1130840B60116D12F5F3F4F3983288382E080930E
S11308509C00A7DD20919C0030E0E901CC0FDD1F56
S1130860C857DF4F220F331F220F331FF901EA59F4
S1130870FE4FC080D180E280F3809B01AC012C1933
S11308803D094E095F090F2EC12CD12CF8EEEF2E35
S1130890F3E0FF2EF02DC701B601EAD02F5F3F4FE2
S11308A03983288383E080939C007BDD20919C0026
S11308B030E0E901CC0FDD1FC857DF4F220F331F93
S11308C0220F331FF901EA59FE4F80809180A280E4
S11308D0B3809B01AC01281939094A095B09C70196
S11308E0B601C6D02F5F3F4F3983288310939C00F5
S11308F0DF91CF911F91FF90EF90DF90CF90BF9049
S1130900AF909F908F9008950F931F93CF93EFDB39
S113091000E910E0C0E060E0F801819191918F015D
S1130920EADB80E293E09BDB829904C0CF5FC630B0
S113093091F702C0C63039F4DADB829BFECF8AE03D
S113094090E08DDB15C0D3DB88EC90E088DBEC2FE6
S1130950F0E0EE0FFF1FE057FF4F60E080819181D0
S1130960CADB80E991E07BDBC2DB88EC90E077DBDB
S11309708C2FCF911F910F91089580E181BB9698A0
S1130980929A1FBC1EBC84E089BF8BE088B981E0C9
S113099087B980B7886080BF0895CF93DF93CDB7C0
S11309A0DEB764970FB6F894DEBF0FBECDBFE5DFA8
S11309B082DBC7DC7894949A84E080939C00992429
S11309C093940F2EFDE0AF2EF1E0BF2EF02DCE015B
S11309D001966C0180919C00892580939C00E1DC48
S11309E0E62EF72E082F192F9F938F937F936F93E3
S11309F0BF92AF92DF92CF925DD060E0C6017BDB05
S1130A000FB6F894DEBF0FBECDBF8299E3CF949AA0
S1130A108D9895988E9A78DF8230C1F028F48823D7
S1130A2049F0813069F01EC08430C9F0B0F08530DF
S1130A30C1F018C080919C00846080939C0012C017
S1130A4080919C00897F80939C000CC080919C00C5
S1130A508B7F826080939C0005C069DE03C091DEB9
S1130A6001C088DC6E2D7F2D802F912FACDDB2CF9D
S1130A70A1E21A2EAA1BBB1BFD010DC0AA1FBB1F9E
S1130A80EE1FFF1FA217B307E407F50720F0A21B10
S1130A90B30BE40BF50B661F771F881F991F1A947D
S1130AA069F760957095809590959B01AC01BD01A7
S1130AB0CF010895AEE0B0E0EFE5F5E0D8C20D89CE
S1130AC01E8986E08C831A8309838FEF9FE79E83B8
S1130AD08D83AE01475E5F4F6F89788DCE0101969D
S1130AE008D0EF81F885E00FF11F10822E96E4E024
S1130AF0DAC2ABE0B0E0EEE7F5E0ABC26C017B013B
S1130B008A01FC0117821682838181FFBFC1CE0155
S1130B1001963C01F6019381F70193FD859193FFC2
S1130B2081917F01882309F4ADC1853239F493FDA5
S1130B30859193FF81917F01853221F4B60190E084
S1130B40C0D1E8CF912C212C312CFFE1F315D8F042
S1130B508B3279F038F4803279F08332A1F4232D8A
S1130B6020611DC08D3261F0803369F4232D216032
S1130B7016C0832D8260382EE32DE4603E2E2AC0F9
S1130B80F32DF8601DC037FC2DC020ED280F2A304E
S1130B9040F08E32B9F436FC75C1232D2064322E18
S1130BA019C036FE06C08AE0989E200D1124922EAC
S1130BB011C0EAE02E9E200D1124222EF32DF062A6
S1130BC03F2E08C08C3621F4832D8068382E02C055
S1130BD0883641F4F70193FD859193FF81917F015C
S1130BE08111B3CF982F9F7D9554933028F40C5FD7
S1130BF01F4F9FE399830DC0833631F0833771F023
S1130C00833509F055C020C0F801808189830E5FC7
S1130C101F4F88248394912C530112C02801F2E0C1
S1130C204F0E511CF801A080B18036FE03C0692D1F
S1130C3070E002C06FEF7FEFC50138D14C01820133
S1130C40F32DFF773F2E15C0280122E0420E511CE0
S1130C50F801A080B18036FE03C0692D70E002C0A7
S1130C606FEF7FEFC50117D14C01F32DF0683F2ED4
S1130C70820133FC19C0822D90E088169906A0F4F5
S1130C80B60180E290E01DD12A94F5CFF50137FC3E
S1130C90859137FE81915F01B60190E012D1211058
S1130CA02A9421E0821A91088114910479F7E1C011
S1130CB0843611F0893639F5F80137FE07C06081B2
S1130CC07181828193810C5F1F4F08C060817181A3
S1130CD0072E000C880B990B0E5F1F4FF32DFF7628
S1130CE03F2E97FF09C090958095709561957F4F31
S1130CF08F4F9F4FF0683F2E2AE030E0A3011DD1B3
S1130D00882E861844C0853731F4232D2F7EB22EC9
S1130D102AE030E025C0932D997FB92E8F36C1F09B
S1130D2018F4883579F0AEC0803719F0883721F08F
S1130D30A9C0E92FE061BE2EB4FE0DC0FB2DF46006
S1130D40BF2E09C034FE0AC0292F2660B22E06C069
S1130D5028E030E005C020E130E002C020E132E0CC
S1130D60F801B7FE07C060817181828193810C5FB5
S1130D701F4F06C06081718180E090E00E5F1F4FBD
S1130D80A301DBD0882E8618FB2DFF773F2E36FE7D
S1130D900DC0232D2E7FA22E891458F434FE0BC0CF
S1130DA032FC09C0832D8E7EA82E05C0B82CA32C3E
S1130DB003C0B82C01C0B92CA4FE0FC0FE01E80D7D
S1130DC0F11D8081803321F49A2D997EA92E09C0CA
S1130DD0A2FE06C0B394B39404C08A2D867809F0A9
S1130DE0B394A3FC10C0A0FE06C0B21480F4280C77
S1130DF0922C9B180DC0B21458F4B60180E290E016
S1130E0060D0B394F8CFB21418F42B1802C0982C05
S1130E10212CA4FE0FC0B60180E390E052D0A2FEC4
S1130E2016C0A1FC03C088E790E002C088E590E00A
S1130E30B6010CC08A2D867851F0A1FE02C08BE267
S1130E4001C080E2A7FC8DE2B60190E03AD089149B
S1130E5030F4B60180E390E034D09A94F8CF8A94C9
S1130E60F301E80DF11D8081B60190E02AD08110D4
S1130E70F6CF222009F44ECEB60180E290E021D0D4
S1130E802A94F7CFF6018681978102C08FEF9FEFF6
S1130E902B96E2E1FAC0FC0105906150704001100C
S1130EA0D8F7809590958E0F9F1F0895FC0161508F
S1130EB0704001900110D8F7809590958E0F9F1F78
S1130EC008950F931F93CF93DF93FB01238121FD9B
S1130ED003C08FEF9FEF2CC022FF16C046815781BD
S1130EE0248135814217530744F4A081B1819D01C7
S1130EF02F5F3F4F318320838C93268137812F5F6F
S1130F003F4F3783268314C08B01EC01FB0100841F
S1130F10F185E02D0995892BE1F6D80116968D917E
S1130F209C911797019617969C938E931697CE01D2
S1130F30DF91CF911F910F910895FA01AA272830CC
S1130F4051F1203181F1E8946F936E7F6E5F7F4F92
S1130F508F4F9F4FAF4FB1E03ED0B4E03CD0670F0E
S1130F60781F891F9A1FA11D680F791F8A1F911D61
S1130F70A11D6A0F711D811D911DA11D20D009F4B1
S1130F8068943F912AE0269F11243019305D3193F3
S1130F90DEF6CF010895462F4770405D4193B3E0DC
S1130FA00FD0C9F7F6CF462F4F70405D4A3318F083
S1130FB0495D31FD4052419302D0A9F7EACFB4E034
S1130FC0A6959795879577956795BA95C9F70097EC
S1130FD06105710508959B01AC010A2E069457958D
S1130FE0479537952795BA95C9F7620F731F841FE4
S1130FF0951FA01D0895DC01CB01FC01E199FECFF2
S113100006C0FFBBEEBBE09A31960DB20D92415083
S11310105040B8F70895E199FECF9FBB8EBBE09A8C
S113102099278DB30895DC01CB0102C02D9105D021
S113103041505040D8F70895262FE199FECF9FBB29
S11310408EBB2DBB0FB6F894E29AE19A0FBE0196BF
S113105008952F923F924F925F926F927F928F9258
S11310609F92AF92BF92CF92DF92EF92FF920F9333
S11310701F93CF93DF93CDB7DEB7CA1BDB0B0FB63D
S1131080F894DEBF0FBECDBF09942A8839884888FA
S11310905F846E847D848C849B84AA84B984C88490
S11310A0DF80EE80FD800C811B81AA81B981CE0F87
S11310B0D11D0FB6F894DEBF0FBECDBFED0108956C
S10710C0F894FFCFCE
S11310C400CA9A3B00E1F5058096980040420F005F
S11310D4A086010010270000E8030000640000005B
S11310E40A00000001000000B6535C24DF4BF52025
S11310F411011D01290135014501550104706E7565
S11311046D20436865636B696E672041434F2E2EDF
S11311142E00616C6C6F3F00414353523A202569A1
S113112400537475636B20696E206C6F6F702100BB
S1131134616E61206B6861726167742062617261BF
S11311440063617365203200636173652033006852
S1131154656E6161004175746F2000466F7263654A
S113116400206869676800206C6F772000256C751F
S11311740052616E67653A204175746F0052616E66
S113118467653A204C6F77200052616E67653A2098
S1131194486967680043616C6962726174653A20E6
S11311A45A65726F0043616C6962726174653A20B6
S11311B43120754600536176652063616C696272FF
S10911C46174696F6E0006
S9030000FC
