:100000000C942A000C9447000C9447000C94470071
:100010000C9447000C9447000C9447000C94470044
:100020000C94B3010C9447000C9447000C944700C7
:100030000C9447000C9447000C9447000C94470024
:100040000C9491010C9447000C9447000C944700C9
:100050000C94470011241FBECFE5D4E0DEBFCDBF16
:1000600011E0A0E6B0E0E4EAFAE002C005900D92EB
:10007000A031B107D9F721E0A0E1B1E001C01D92A4
:10008000A434B207E1F70E94B7040C9450050C9415
:100090000000009731F0A0EDB7E01197F1F701975C
:1000A000D1F708951F93CF93DF93C82F162F811197
:1000B000C0E2812F82958F708C2B88BBC49AD5E0CB
:1000C0008D2F8A95F1F7C49882E090E00E94490054
:1000D0001F70C12BC8BBC49ADA95F1F7C49882E0AF
:1000E00090E00E944900DF91CF911F91089518BAC6
:1000F0008FEF87BB82E390E00E94490063E380E0DA
:100100000E94520062E380E00E94520068E280E0B8
:100110000E94520068E080E00E9452006CE080E0A3
:100120000E94520061E080E00E94520066E080E0A0
:100130000E945200089561E080E00E9452000895FC
:10014000FF920F931F93CF93DF93D82FF92EC62FD3
:10015000603140F460E86C0F80E00E9452000D2F87
:100160001F2D14C06032B8F460EB6C0F80E00E9469
:100170005200F5CFC03278F481E00E945200CF5F88
:10018000C03121F460EC80E00E945200F8016191DE
:100190008F016111EFCFDF91CF911F910F91FF90F0
:1001A00008956F927F928F929F92AF92BF92CF925B
:1001B000DF92EF92FF920F931F93CF93DF933C0157
:1001C00020E031E080E010E090E06894CC24C5F8B5
:1001D0000F2EF0E3FF2EF02DEE24E3940F2EFEE21F
:1001E000DF2EF02D112309F479C0243029F02730B7
:1001F00021F02130D9F48F5F8F5F8F5FF301E90F1A
:10020000F11DD0829F5FA22FB0E0FD01EE0FFF1F16
:10021000EE0FFF1FE05AFF4F80809180A280B380D5
:10022000481559056A057B0598F027C0A22FB0E054
:10023000FD01EE0FFF1FEE0FFF1FE05AFF4F808002
:100240009180A280B380481559056A057B05A8F402
:10025000F301E90FF11DF0829F5F38C0263028F0CE
:10026000F301E90FF11DC0829F5F263079F5F3019C
:10027000E90FF11DC0829F5F2BC0F301E90FF11D53
:10028000F0828D01000F111F000F111F005A1F4F28
:10029000E80188809980AA80BB80481559056A05C5
:1002A0007B0590F0D80110811F5F10838D909D9089
:1002B000AD90BC901397481959096A097B094815F4
:1002C00059056A057B0578F79F5F1E2D3A30D0F4FB
:1002D0003F5F2F5F953008F485CF14C0A22FB0E0A8
:1002E000FD01EE0FFF1FEE0FFF1FE05AFF4F808052
:1002F0009180A280B380481559056A057B0508F4F2
:10030000ADCFBBCFDF91CF911F910F91FF90EF90B9
:10031000DF90CF90BF90AF909F908F907F906F9025
:1003200008951F920F920FB60F9211248F93809110
:100330002101813041F48EBD8091200187B982E096
:10034000809321010AC080912101823031F4459BC4
:1003500004C01EBC83E0809321018F910F900FBEDB
:100360000F901F9018951F920F920FB60F921124A5
:100370008F939F93809122019091230101969093F6
:100380002301809322019F918F910F900FBE0F90B8
:100390001F90189581E090E00E9431058334B1F4FC
:1003A00082E090E00E943105843481F440E150E025
:1003B00063E070E080E191E00E94210548E050E0B8
:1003C00063E170E088E890E00E942105089563E40D
:1003D00081E090E00E94430564E482E090E00E94A6
:1003E000430540E150E063E070E080E191E00E946D
:1003F000390548E050E063E170E088E890E00E9451
:1004000039050895CF93DF931092210181E087B9D8
:1004100095988D9A8E9881E090E00E944900829B89
:1004200091C0459B06C08E9A8AE090E00E944900E8
:10043000F1CF8E9A84E690E00E9449001EBC1DBC5C
:100440001CBC10922301109222018D98959881E096
:100450008093210180919C0080FF04C083E0809301
:10046000200103C082E08093200194988E988091AF
:100470009C0082FD08C02AC081E090E00E944900F3
:10048000829903C063C0C0E0D0E080912101813037
:1004900031F42196C43F81E0D80771F703C0C43F0F
:1004A000D14070F08E9A84E690E00E9449008E98C8
:1004B000959A8D9A80919C00826080939C0012C0D6
:1004C00080919C008D7F80939C000CC081FF0AC0AE
:1004D000959A8D9A07C081E090E00E944900829928
:1004E00003C038C0C0E1D7E280912101833011F010
:1004F000219789F78D9895988E9A949A80912101E9
:10050000833031F080919C00886080939C0005C00E
:1005100080919C00877F80939C00109221016091C4
:100520002201709123012CB53DB5CB01A0E0B0E0D4
:10053000DC0199278827BC01CD01620F731F811D43
:10054000911D0BC060E070E0CB0107C060E070E07F
:10055000CB0103C060E070E0CB01DF91CF91089543
:10056000CF92DF92EF92FF920F931F936B017C016A
:1005700080919C0082FF06C060E082EA90E00E94C9
:10058000A00005C060E088EA90E00E94A000809191
:100590009C0081FF06C060E18EEA90E00E94A0000E
:1005A00005C060E184EB90E00E94A00080919C0077
:1005B00083FF11C0E4E2F1E080E2808381838283E3
:1005C00095E4938392E7948395832FE6268397831C
:1005D000808711866DC0837090E0FC01EE0FFF1FD5
:1005E000EE0FFF1FE05FFE4F4081518162817381FA
:1005F000C416D506E606F70660F42DE22093240122
:100600008A019B010C191D092E093F096801790116
:1006100007C020E220932401C41AD50AE60AF70A8B
:10062000880F991FFC01E857FF4F80819181662751
:1006300055274427C89E712DC99E700D411D561F18
:10064000D89E700D411D561FD99E400D511D661F2D
:10065000E89E400D511D08F463957727E99E500DE3
:10066000611D08F47395F89E500D611D08F4739593
:10067000F99E600D711D112485E291E00E94D10068
:1006800090919C0091FD8F5FA4E2B1E090E21696FC
:100690009C931697E82FF0E0E356FF4F8081179662
:1006A0008C93179786E418968C93189719961C923A
:1006B00080919C0080FD02C067E101C067E084E298
:1006C00091E00E94A0001F910F91FF90EF90DF90AA
:1006D000CF900895CF93C0919C0010929C000E94EF
:1006E00002020E940202E0919C00F0E0EE0FFF1F68
:1006F000EE0FFF1FE05FFE4F608371838283938361
:1007000081E080939C000E9402020E940202E0911C
:100710009C00F0E0EE0FFF1FEE0FFF1FE05FFE4FAB
:100720006083718382839383C0939C00CF910895EB
:100730008F929F92AF92BF92CF92DF92EF92FF92F1
:100740001F93CF93DF9310919C0010929C000E9406
:10075000020220919C0030E0E901CC0FDD1FC85758
:10076000DF4F220F331F220F331FF901E05FFE4FCF
:10077000C080D180E280F380DC01CB018C199D091F
:10078000AE09BF09292F3A2F4B2F55270F2EC12C09
:10079000F0E4DF2EF2E4EF2EFFE0FF2EF02DC70194
:1007A000B6010E94FF042F5F3F4F3983288381E009
:1007B00080939C000E94020220919C0030E0E9019D
:1007C000CC0FDD1FC857DF4F220F331F220F331FFF
:1007D000F901E05FFE4F80809180A280B380DC0150
:1007E000CB0188199909AA09BB09292F3A2F4B2F48
:1007F0005527C701B6010E94FF042F5F3F4F398381
:10080000288382E080939C000E94020220919C0039
:1008100030E0E901CC0FDD1FC857DF4F220F331F37
:10082000220F331FF901E05FFE4FC080D180E280CC
:10083000F3809B01AC012C193D094E095F090F2E75
:10084000C12CD12CF8EEEF2EF3E0FF2EF02DC701D6
:10085000B6010E94FF042F5F3F4F3983288383E056
:1008600080939C000E94020220919C0030E0E901EC
:10087000CC0FDD1FC857DF4F220F331F220F331F4E
:10088000F901E05FFE4F80809180A280B3809B01E0
:10089000AC01281939094A095B09C701B6010E9450
:1008A000FF042F5F3F4F3983288310939C00DF9113
:1008B000CF911F91FF90EF90DF90CF90BF90AF90BE
:1008C0009F908F9008950F931F93CF930E949B004A
:1008D00000E910E0C0E060E0F801819191918F01A2
:1008E0000E94A00080E293E00E944900829904C027
:1008F000CF5FC63081F702C0C63049F40E949B002A
:10090000829BFECF8AE090E00E9449001BC00E94BB
:100910009B0088EC90E00E944900EC2FF0E0EE0F85
:10092000FF1FE057FF4F60E0808191810E94A0008F
:1009300080E991E00E9449000E949B0088EC90E0D1
:100940000E9449008C2FCF911F910F91089580E153
:1009500081BB9698929A1FBC1EBC84E089BF8BE035
:1009600088B981E087B980B7886080BF08950E9408
:10097000A7040E9477000E94CA017894949A84E0A8
:1009800080939C00C1E080919C008C2780939C0008
:100990000E940202829930C0949A8D9895988E9AFE
:1009A0000E9463048230C1F028F4882349F081302A
:1009B00069F0E9CF8430D1F0B0F08530D1F0E3CFE9
:1009C00080919C00846080939C00DDCF80919C008E
:1009D000897F80939C00D7CF80919C008B7F826021
:1009E00080939C00D0CF0E946A03CDCF0E949803D1
:1009F000CACF0E94E701C7CF0E94B002C4CFA1E2D4
:100A00001A2EAA1BBB1BFD010DC0AA1FBB1FEE1F88
:100A1000FF1FA217B307E407F50720F0A21BB30BD3
:100A2000E40BF50B661F771F881F991F1A9469F74F
:100A300060957095809590959B01AC01BD01CF01AB
:100A40000895DC01CB01FC01E199FECF06C0FFBB9C
:100A5000EEBBE09A31960DB20D9241505040B8F77E
:100A60000895E199FECF9FBB8EBBE09A99278DB385
:100A70000895DC01CB0103C02D910E944405415033
:100A80005040D0F70895262FE199FECF9FBB8EBB33
:100A90002DBB0FB6F894E29AE19A0FBE0196089525
:040AA000F894FFCFF8
:100AA40000CA9A3B00E1F5058096980040420F0089
:100AB400A086010010270000E80300006400000085
:100AC4000A00000001000000B6535C24DF4BF5204F
:100AD400BA00C600D200DE00EE00FE0004706E759F
:100AE4006D204175746F2000466F72636500206845
:100AF40069676800206C6F77200052616E67653A01
:100B0400204175746F0052616E67653A204C6F77AF
:100B1400200052616E67653A204869676800436146
:100B24006C6962726174653A205A65726F00436140
:100B34006C6962726174653A2031207546005361B4
:100B440076652063616C6962726174696F6E00001E
:00000001FF
