:0A000000AAC0FECFFDCFFCCFFBCF5E
:10000A00FACFF9CFF8CFFEC0F6CFF5CFF4CFF3CFC2
:10001A00F2CFF1CFF0CF0AC1EECFEDCF1027E80330
:10002A0064000A0001000010000110000100040031
:10003A00706E756D200060016C0178018401940175
:10004A00A401B6535C24DF4BF52052616E67653A12
:10005A00204175746F0052616E67653A204C6F7764
:10006A00200052616E67653A2048696768004361FB
:10007A006C6962726174653A205A65726F004361F5
:10008A006C6962726174653A203120754600536169
:10009A0076652063616C6962726174696F6E004192
:1000AA0075746F2000466F7263650020686967681F
:1000BA0000206C6F7720000000CA9A3B00E1F5052A
:1000CA008096980040420F00A08601001027000089
:1000DA00E8030000640000000A00000001000100BB
:1000EA002D4E414E00494E460000010005003800E1
:1000FA000500CD013A000C00600154000C006C01AF
:10010A0060000C0078016C00100084017800100077
:10011A00940188001100A40198000C00F601400027
:10012A00080002024C000600B501A9000600BB0146
:10013A00AF000600C101B5000600C701BB002500DB
:10014A001A02C20001004202E8000000F894EE27F9
:10015A00ECBBF1E0FBBFEBBFE5BF8DE0A2E0BB2744
:10016A00ED938A95E9F780E094E0A0E6ED93019794
:10017A00E9F7E4EFF0E085919591009761F0A59198
:10018A00B59105901590BF01F00105900D92019768
:10019A00E1F7FB01F0CFEFE5EDBFE4E0EEBFC0E62B
:1001AA00D1E0E6C13CD32C9701D5AC89BD898E89B3
:1001BA009F89E0E11CD48F01EC89FD899F01D80158
:1001CA0044D430D3EC87FD876E877F87D90188278F
:1001DA00992728D3E050F0486F4F7F4F25D4E887FE
:1001EA00F9876A877B87AC85BD858E859F85E8D32D
:1001FA00EC83FD836E837F83A889B98992D4DBD48B
:10020A0068960895AA93BA93EA93FA93EFB7EA9392
:10021A00A2EFB1E0ED91FD913196FE93EE93E99153
:10022A00EFBFF991E991B991A9911895AA93EA9327
:10023A00EFB7EA93FCD2A13039F4E1E0EEBDE091E8
:10024A00F501E7B9E2E008C0F2D2A23039F4459BE1
:10025A0005C0E0E0EEBDE3E0E093F401E991EFBF11
:10026A00E991A9911895A1E0B0E079D4E33409F0B5
:10027A000895A2E0B0E073D4E43409F00895DAD224
:10028A00AAD2E3D2A8D20895A1E0B0E0E3E473D4FD
:10029A00A2E0B0E0E4E46FD4CDD2AED2D6D2ACD2F2
:1002AA00089586D4E0E0E093F401E1E0E7B9959897
:1002BA008D9A8E98D5D2829902C0D5D27AC0459BA2
:1002CA0004C08E9AAAE0D4D2F4CF8E9AA4E6D0D2F1
:1002DA00E0E0EEBDE0E0F0E0FDBDECBDE093F20150
:1002EA00E093F3018D989598E1E0E093F40150FED4
:1002FA0002C0E3E001C0E2E0E093F50194988E9831
:10030A0052FE23C000E010E092D2A13039F4F80185
:10031A0031968F01E43FA1E0FA0708F006C0A0D2A7
:10032A00829902C0A0D245C0EFCF043FE1E01E0788
:10033A0048F08E9AA4E69CD28E98959A8D9AE2E01D
:10034A005E2A02C0EDEF5E2204C051FE02C0959AF9
:10035A008D9A00E010E06BD2A33039F0F8013196A3
:10036A008F01E031A7E2FA0708F006C079D2829934
:10037A0002C079D21EC0EFCF8D9895988E9A949A22
:10038A0056D2A33019F0E8E05E2A02C0E7EF5E22F7
:10039A00E0E0E093F401E091F201F091F3016627C5
:1003AA00772749D3DF01CB01ECB5FDB5662777275F
:1003BA0007D3099119910895CDD324971A9352FE20
:1003CA0003C0E5EBF1E002C0EBEBF1E0FA93EA934C
:1003DA00A0E07BD151FE03C0E1ECF1E002C0E7EC02
:1003EA00F1E0FA93EA93A0E170D153FE17C0E0E27C
:1003FA00E093D201E093D301E093D401E5E4E093E2
:10040A00D501E2E7E093D601E093D701EFE6E09366
:10041A00D801E2E7E093D901E0E23EC0E52DE370BE
:10042A001E2F28D2DF01CB012ED2B6D358F4EDE22B
:10043A00E093D2011FD22CD2C8D2ED83FE836F8300
:10044A0078870AC0E0E2E093D20114D221D2C2D264
:10045A00AD83BE838F83988716D277D3E12F1DD2BF
:10046A0022D224D2DE0117969DDEE3EDF1E0FA9363
:10047A00EA93AB81BC818D819E8155D11E2F51FC9F
:10048A001F5FE0E2E093D801E12FF0E0E353FE4F73
:10049A00E081E093D901E6E4E093DA01E0E0E09359
:1004AA00DB0150FE02C017E001C017E1E2EDF1E006
:1004BA00FA93EA93A12F09D1188129960895FAD1BE
:1004CA0003D208D2E1E013D2FFD104D227C0F2D17D
:1004DA0010D221D2FF93EF9321D2AF91BF912BD2A9
:1004EA00E1E005D206D217D2FF93EF9317D2AF916C
:1004FA00BF9121D2E2E0FBD1FCD10DD2FF93EF9361
:10050A001DD2AF91BF9117D2E3E0F1D1F2D103D25C
:10051A00FF93EF9313D2AF91BF910DD2512E188151
:10052A00259608951A93CDD010E0163050F411D2C2
:10053A00A0E0CBD0A0E2B3E07FD0829902C01F5FD7
:10054A00F4CF163029F4BDD0829BFECFAAE00BC0AF
:10055A00B8D0A8EC8DD1FDD1A0E0B7D0A0E9B1E028
:10056A006BD0AFD0A8ECB0E067D0E12F1991089515
:10057A002497ECE2E7BBE0E0E8BBE4BBE5BBE0E7DD
:10058A00E1BBE0E0E2BBE3BFE2BFEFBDEEBDEDBD24
:10059A00ECBDE7BDE6BDEBBDEABDE9BDE8BDE2BD28
:1005AA00E5BDE4BDE3BDE4E0E9BFE0E0E5BFEBB9EA
:1005BA00E8E1EAB9E6E8E0BDE0E0E0BDE3E3E9B995
:1005CA00EBE0E8B9E0E0E0BFE6B9E0E5EDB9E0E08C
:1005DA00EEB9E6BF789460D046DE949AE4E05E2EE7
:1005EA00E1E05E265EDEA7D2829922C0949A8D98B7
:1005FA0095988E9A97DFE03019F4E4E05E2A17C0E6
:10060A00E13019F4E9EF5E2212C0E23029F4EBEF8F
:10061A005E22E2E05E2A0BC0E33011F450DF07C02D
:10062A00E43011F454DF03C0E53009F42DDE02C0D2
:10063A007DD2C2DED5CFFFCFF2D0B8D200E010E033
:10064A00EC81FD810E171F0760F420ED37E0F901F8
:10065A0021503040309711F00000F9CF0F5F1F4F43
:10066A00EFCFA9D226960895AA93E881E03029F01F
:10067A000000E881E150E883D9F721960895AA930A
:10068A00E981E03011F0E0E2E983E881E29569D19D
:10069A00E88167D122960895E0E0E8BBEFEFE7BB77
:1006AA00A2E3E6D068D1A3E369D1A2E367D1A8E2C5
:1006BA0065D1A8E063D1ACE061D1A1E05FD1A6E049
:1006CA0002C059D1A1E0DBDF0895AA93A881A03125
:1006DA0028F451D1A981A058D2DF09C0A881A0323B
:1006EA0028F449D1A981A055CADF01C01AC0A9813D
:1006FA00BA81EC91E030A9F0A881A03290F4E1E04F
:10070A00EA93AA81BB81ED91AA83BB83AE2FB7DF9F
:10071A00A881AF5FA883A03119F42DD1A0ECAFDF77
:10072A00E6CF2396089516D241D200E030E020E0C9
:10073A0010E01A3010F4053008F04BC03030B9F030
:10074A00E12FF0E0E130A0E0FA0711F42F5F04C0D6
:10075A00E430A0E0FA0711F42F5F04C0E730A0E00C
:10076A00FA0729F42F5F0CD1EEE2EC930F5F0ED15A
:10077A0090F4303019F004D1E0E30AC0163020F0CA
:10078A00FFD0E0E2EC930F5F163021F4F9D0E0E2FB
:10079A00EC930F5F1CC0F4D0E0E3EC93F7D0A8F021
:1007AA00EFD0EC91EF5FEC93E12FAAE1B2E0F0E039
:1007BA0036D179D0B0D1AC81BD818E819F810AD1E9
:1007CA00AC83BD838E839F83E9CF0F5F31E01F5FC8
:1007DA00B0CFE22F21C023D0E9D1088519852E8117
:1007EA003F81E1D041F01F930F93E4D0B8D1AF918C
:1007FA00BF91EC93F6CF10C012D0D8D10E811F81D1
:10080A0028853985D0D041F01F930F93D3D0EC912E
:10081A00AF91BF91B0D1F6CFCED12A960895BA93AF
:10082A00AA930895EA89FB890BD134D10895A0913E
:10083A00F4010895EAE0F2E0FA93EA93E3E0F0E0E3
:10084A00FA93EA93A0E1B0E00895E2E0F2E0FA93C5
:10085A00EA93E3E1F0E0FA93EA93A8E0B0E00895BE
:10086A00A1E0B0E0E9CEE0E0F0E060E070E00895F9
:10087A00B0E0E2CEE12FAAE0B2E0F0E0D0D0AE0FD5
:10088A00BF1F49D10895ED81FE816F817885089552
:10089A00AD81BE818F8198850895A2E0B2E0F0E033
:1008AA00EE0FFF1F0895AE0FBF1F089530D1FA93C0
:1008BA00EA93089524971A93152D5524F2DCE983B7
:1008CA00FA836B837C830895ECDCE983FA836B8378
:1008DA007C830895E52DAAE0B2E0F0E0A0D0EA0F0B
:1008EA00FB1FA981BA818B819C812AD108955E2E32
:1008FA00EBCFE52DAAE0B2E0F0E091D0D4DF0BD146
:10090A00A981BA818B819C8165D0A983BA838B83A3
:10091A009C83E52DC2CFEA0FFB1F0895A981BA81F6
:10092A008B819C81E8E06FD0A0E0B0E482E49FE094
:10093A00B6D031960895ED93FC930895E981FA8132
:10094A006B817C81A0E0B0E088EE93E0A8D031967C
:10095A000895E12FA6EFB1E0F0E0EE0FFF1FA3DF4D
:10096A00A5CFEF70A981EA2BE8BBC49AA5E07CDE8B
:10097A00C498A2E07DCFE0E0EA93089580DEFBCF41
:10098A00A885B985EE27A00FBE1F0895E12FAAE119
:10099A00B2E0F0E044D087DFBED0AC81BD818E8169
:1009AA009F81FFD00895EC81FD813197EC83FD830F
:1009BA00319608950F5F1F4FD9012F5F3F4F08955A
:1009CA00EA0FFB1F681F791F0895EA1BFB0B680BD0
:1009DA00790B0895AE1BBF0B860B970B0895F09504
:1009EA0060957095E195FF4F6F4F7F4F0895EE2305
:1009FA000E2EFD01BC0131F075956795F795E795C7
:100A0A000A94D1F70895EE230E2EFD01BC0131F0B0
:100A1A0076956795F795E7950A94D1F70895EE0FBD
:100A2A00FF1FEE0FFF1F0895E62FF72F6627F7FD2A
:100A3A006FEF762F08956E2F7F2FE0E0F0E0089594
:100A4A006F2F660F660B762F08958B2F880F880BF2
:100A5A00982F08957A9F702D6B9F700DF89F700DD7
:100A6A00E99F700D6A9F602D710DFB9F600D711DCE
:100A7A00E89F600D711D8827FA9FF02D610D781F80
:100A8A00EB9FF00D611D781FEA9FE02DF10D681FA5
:100A9A00781F089529D0DEDF0EF4A1DF08953F9371
:100AAA004F935F93002411244427552730E2AA0F5D
:100ABA00BB1F881F991F001C111C441F551F0E1AAB
:100ACA001F0A460B570B28F40E0E1F1E461F571FF0
:100ADA0001C0A1603A9559F7FD01BC01D001CA01D4
:100AEA005F914F913F910895E89477FF02C077DFB5
:100AFA00689497FF0BC00024A095B09580959095B7
:100B0A001196801D901D00F8039400FA0895ED9146
:100B1A00FC9111970895ED91FD916D917C91139738
:100B2A000895ED93FD936D937C930895A881B981FF
:100B3A008A819B810895E883F9836A837B83089578
:100B4A00A083B1838283938308957A936A93FA93F5
:100B5A00EA9308959A938A93BA93AA930895E19986
:100B6A00FECFFF93FFB7F894AEBBBFBBE09AEDB3DD
:100B7A00FFBFFF910895E19B02C0A895FCCF9FB7E4
:100B8A00F894AEBBBFBBE09A8DB3E81719F0EDBB82
:100B9A00E29AE19A9FBF0895EA17FB076807790767
:100BAA000895AE17BF078607970708953A932A93C1
:100BBA001A930A9308953B812A811981088108951D
:00000001FF
