:060000000C94C1000C94F9
:1000060000000C9400000C9400000C9400000C946A
:1000160000000C9400000C9400000C940D010C944C
:1000260000000C9400000C9400000C9400000C944A
:1000360000000C9400000C9400000C94EE000C944C
:1000460000000C9400000C9400000C940000102793
:10005600E80364000A00010000100001100001001E
:100066000400706E756D200000CA9A3B00E1F5052C
:100076008096980040420F00A086010010270000DD
:10008600E8030000640000000A00000001006001AF
:100096006C01780184019401A401B6535C24DF4B02
:1000A600F52052616E67653A204175746F005261A2
:1000B6006E67653A204C6F77200052616E67653A2D
:1000C60020486967680043616C6962726174653AC9
:1000D600205A65726F0043616C6962726174653A99
:1000E600203120754600536176652063616C696234
:1000F600726174696F6E004175746F2000466F728D
:10010600636500206869676800206C6F772000418E
:1001160044433A202575000080C0010005006600B2
:100126000500CD0168002500D2016E000C006001BB
:10013600A8000C006C01B4000C007801C00010008F
:100146008401CC0010009401DC001100A401EC0035
:100156000C001E02940008002A02A0000600B50149
:10016600FD000600BB0103010600C10109010600EE
:10017600C7010F01020052021E010000F894EE278B
:10018600ECBBF1E0FBBFEBBFE5BF8DE0A2E0BB2718
:10019600ED938A95E9F780E094E0A0E6ED93019768
:1001A600E9F7E0E2F1E085919591009761F0A5917C
:1001B600B59105901590BF01F00105900D9201973C
:1001C600E1F7FB01F0CFEFE5EDBFE4E0EEBFC0E6FF
:1001D600D1E00C94C303AA93EA93EFB7EA93A091F4
:1001E6001C02A13039F4E1E0EEBDE0911D02E7B951
:1001F600E2E009C0A0911C02A23039F4459B05C07B
:10020600E0E0EEBDE3E0E0931C02E991EFBFE99187
:10021600A9911895AA93BA93EA93FA93EFB7EA933A
:10022600AAE1B2E00E94BB06E991EFBFF991E9911C
:10023600B991A9911895BA93AA9328970E948F0805
:10024600E889F9898F01E889F9896A897B890E9499
:10025600E1079F01D8010E94C1060E94E107E887D5
:10026600F9876A877B87D9010E94C106EC83FD83E3
:100276006E837F83E885F9856A857B850E94CA0639
:100286000E94BD07AC85BD850E9444080E94960861
:100296000C946C06A1E0B0E00E946608E33409F015
:1002A6000895A2E0B0E00E946608E43409F00895DB
:1002B6000E94CF060E94CB040E94DA060E94CB045D
:1002C6000895A1E0B0E0E3E40E947208A2E0B0E085
:1002D600E4E40E9472080E94CF060E94E4040E9491
:1002E600DA060E94E4040895AA931A930A93AA814F
:1002F600A03110F0E1E001C0E0E01E2FEA81F0E05D
:10030600AFE0B0E00E9430080E2F0A93A12F0E94A2
:100316005E04AB81BC810E948C040C9436050E945D
:1003260061080E948F0800E030E020E010E01A30FB
:1003360010F4053008F050C03030C1F0E12FF0E085
:10034600E130A0E0FA0711F42F5F04C0E430A0E02A
:10035600FA0711F42F5F04C0E730A0E0FA0731F482
:100366002F5F0E94E506EEE2EC930F5F0E94EB061C
:10037600A8F4303021F00E94E506E0E30CC0163008
:1003860028F00E94E506E0E2EC930F5F163029F4B0
:100396000E94E506E0E2EC930F5F1CC00E94E506B2
:1003A600E0E3EC930E94EB0698F00E94E506EC91E0
:1003B600EF5FEC93E12FA2EDB1E00E94F9060E94F7
:1003C600CA060E94C707AC83BD838E839F83EACF8C
:1003D6000F5F31E01F5FABCFE22F0C94FC041A9342
:1003E6000A93E0E0E0931C02E1E0E7B995988D9A64
:1003F6008E980E940107829903C00E94050789C052
:10040600459B06C08E9AAAE0B0E00E94AF07F0CFE7
:100416008E9AA4E6B0E00E94AF07E0E0EEBDE0E011
:10042600F0E0FDBDECBDE0931A02E0931B028D984F
:100436009598E1E0E0931C0250FE02C0E3E001C0A3
:10044600E2E0E0931D0294988E9852FE28C000E0E8
:1004560010E0A0911C02A13039F4F80131968F0109
:10046600E43FA1E0FA0708F008C00E94010782995C
:1004760003C00E9405074DC0ECCF043FE1E01E0714
:1004860058F08E9AA4E6B0E00E94AF078E98959A2F
:100496008D9AE2E05E2A02C0EDEF5E2204C051FEB4
:1004A60002C0959A8D9A00E010E0A0911C02A3303C
:1004B60039F0F80131968F01E031A7E2FA0708F02A
:1004C60008C00E940107829903C00E94050721C047
:1004D600ECCF8D9895988E9A949AA0911C02A33091
:1004E60019F0E8E05E2A02C0E7EF5E22E0E0E09362
:1004F6001C02E0911A02F0911B02662777270E94E0
:10050600E607DF01CB01ECB5FDB5662777270E942C
:10051600BD070991199108950E94610824971A93BD
:1005260052FE03C0E5EBF1E002C0EBEBF1E0FA931B
:10053600EA93A0E0D9DE51FE03C0E1ECF1E002C08F
:10054600E7ECF1E0FA93EA93A0E1CEDE53FE17C0A2
:10055600E0E2E093FA01E093FB01E093FC01E5E4BD
:10056600E093FD01E2E7E093FE01E093FF01EFE691
:10057600E0930002E2E7E0930102E0E252C0E52DDB
:10058600E3701E2F0E940A07DF01CB01ED81FE8179
:100596006F8178850E94830880F4EDE2E093FA018A
:1005A6000E940A07AD81BE818F8198850E94C2078D
:1005B600ED83FE836F8378870FC0E0E2E093FA0154
:1005C6000E940A07AD81BE818F8198850E94C70768
:1005D600AD83BE838F839887ED81FE816F81788599
:1005E6000E945C08E12F0E940E070E941407DE019C
:1005F600179621DEEBEFF1E0FA93EA93AB81BC812B
:100606008D819E818CDE1E2F51FC1F5FE0E2E09300
:100616000002E12FF0E0E353FE4FE081E093010298
:10062600E6E4E0930202E0E0E093030250FE02C03B
:1006360017E001C017E1EAEFF1E0FA93EA93A12F80
:1006460053DE1881299608950E941B070E942607EB
:100656000E942D07E1E05E2E0E9426070E942607D3
:100666000E942D07512E18810C9438050E941B07F5
:100676000E943C070E9440070E944507EA0FFB1FA5
:10068600FF93EF930E944D07AF91BF91ED93FC93BB
:10069600E1E05E2E0E9426070E943C070E94590751
:1006A600EA0FFB1FFF93EF930E944D07AF91BF9197
:1006B600ED93FC93E2E05E2E0E9426070E943C0723
:1006C6000E945907EA0FFB1FFF93EF930E945B07F7
:1006D600AF91BF91ED93FC93E3E05E2E0E94260757
:1006E6000E943C070E945907EA0FFB1FFF93EF93F6
:1006F6000E945B07AF91BF91ED93FC93512E188139
:100706000C9438051A93E4D010E0163060F40E9479
:100716006707A0E0E9DDA0E2B3E00E94AF07829997
:1007260002C01F5FF2CF163029F4D2D0829BFECFD3
:10073600AAE00FC0CDD0A8ECB0E00E94AF070E949F
:100746006707A0E0D1DDA0E9B1E00E94AF07C0D005
:10075600A8ECB0E00E94AF07E12F19910895E0E1FF
:10076600E1BB9698929AE0E0EFBDEEBDE4E0E9BF0A
:10077600EBE0E8B9E1E0E7B9E0B7E860E0BF08958B
:100786002497E0E0EABBEBBBEFEFE7BBE0E0E8BBBA
:10079600E4BBE5BBE1BBE2BBE3BFE2BFECBFEFBD41
:1007A600EEBDEDBDECBDE7BDE6BDEBBDEABDE9BD09
:1007B600E8BDE2BDE5BDE4BDE3BDE9BFE5BFE4BF1D
:1007C600EAB9E0E8E8B9E0E0E0BFE6B9EDB9E6BFCE
:1007D600A0E1B0D0C4DF5EDD7894949AE4E05E2EAA
:1007E600E1E05E26FCDD0E945208E2E3F2E0FA93C5
:1007F600EA93E5E1F1E0FA93EA93EC81FD816E81FB
:100806007F810E945C0884E00E946E062896E2E3DF
:10081600F2E0FA93EA93A0E067DDA8EEB3E00E9467
:10082600AF07829922C0949A8D9895988E9A6ADF1E
:10083600E03019F4E4E05E2A17C0E13019F4E9EF7C
:100846005E2212C0E23029F4EBEF5E22E2E05E2A7D
:100856000BC0E33011F4F8DE07C0E43011F406DF14
:1008660003C0E53009F42DDD03C00E944D0854DEB7
:10087600B7CFFFCFAA93E8B3E07FAE2FE881E2952A
:10088600EF70EA2BE8BB82E18A95F1F7C49A82E120
:100896008A95F1F7C49882E18A95F1F777C0AA9311
:1008A600A881E8DFE881E295E883A881E3DF88EBA9
:1008B6008A95F1F76BC0AA93E881F0E0EE5AFD4FF6
:1008C600E081A981AE0FEBDF4980788022960895FA
:1008D600A2E00E946E07ACE0E2DFA1E00E946E0794
:1008E600E0E07E2E4E2E0895AA93A881AA3011F03C
:1008F600461448F0E0E0EA937394A72DDCDFA88164
:10090600AA3009F443C04394C59AA881C8DFC598A4
:100916003DC0BA93AA931A93A981BA81ED91A9838E
:10092600BA831E2FE03019F0A12FDEDFF5CF188134
:1009360023960895AA93E7B3EF60E7BBBC9ABD9AE6
:10094600BE9AC498C598C6986880E881E058E09336
:100956005402E881E054E0935502A4E1B0E00E941D
:10096600AF070E9474070E9474070E947407A0E2F2
:1009760081DF84E191E00197F1F7A8E290DFA4E03E
:100986008EDFA5E88CDFA6E08ADFA2DF2196089538
:10099600BA93AA930E948F08088519852E813F81F4
:1009A6000E947C0769F01F930F930F5F1F4FD901B9
:1009B6002F5F3F4F0E946608AF91BF91EC93F0CF37
:1009C60018C0BA93AA930E948F080E811F812885AA
:1009D60039850E947C0769F01F930F930F5F1F4FA5
:1009E600D9012F5F3F4FEC91AF91BF910E947208E2
:1009F600F0CF0E9496082A960895BA93AA931A935E
:100A06000A93AA81BB8112960E943A08309729F16F
:100A1600AA81BB8114960E943A088F01309761F033
:100A26000230E0E01E0780F0F80131978F01AA81BD
:100A3600BB811496ED93FC93AA81BB8112960E940A
:100A4600BB063197AC81A083AA81BB810E943A087C
:100A5600FF2312F00E94BB0606C0AA81BB81EFEFFE
:100A6600FFEFED93FC931981088125960895BA93BB
:100A7600AA9326970E948D0810E0AC85BD85E0E01C
:100A8600F0E0ED93FC93EA89FB893196EA8BFB8BC8
:100A96003197E4912E2FE03009F415C1E12FE030B3
:100AA60039F4253211F411E002C00E9483070AC10D
:100AB600E130A9F4253219F40E94830702C112E03D
:100AC60040E000E02D3211F401E0FCC02B3211F4BD
:100AD6004BE2F8C0203211F440E2F4C002C0E2302A
:100AE60039F450E013E0203311F40068EBC003C082
:100AF600E33009F0E7C0203310F02A3308F007C0CE
:100B0600AAE05A9F502DE22FE0535E0FDBC0E22F82
:100B1600E33649F40E948A07E889F989A481AA93F1
:100B26000E949007CEC0E33741F40E948A070E94D4
:100B360096070E94A2061E2F0AC0E03761F40E94A3
:100B46008A070E9496070E94AE061E2F0860026062
:100B56000F7730E034C0E43611F0E93611F4046062
:100B660002C0E53731F4E4E5F0E0EE83FF8315E0FB
:100B76000CC0E83511F4086003C0E83709F0A1C0DD
:100B8600EEE5F0E0EE83FF8314E002FF14C00E945E
:100B96008A070E94A007AB85AA233AF4EA85FB855B
:100BA6000E94CC07EA87FB874DE2403011F01F5FB9
:100BB60001C00B7F04C00E948A070E94A00700FDA7
:100BC60011C0151778F407FF08C002FF04C00B7F99
:100BD600242F115001C020E301C020E20E948307A8
:100BE6005150EFCF312F01FF17C03030A1F003FF76
:100BF60006C0EE81FF812591EE83FF8305C0AE819D
:100C0600BF812D91AE83BF830E948307503009F0C8
:100C160051503150EACF4BC020E3EE81FF810E9454
:100C26004908E887F987EE81FF813296EE83FF83D4
:100C3600E885F985AA85BB85AE17BF0750F02F5FFB
:100C4600A885B985EA85FB85EA1BFB0BEA87FB8746
:100C5600EFCF2A3328F003FF02C0295F01C0295DC8
:100C660004FD1AC0213320F4A885B985119709F42B
:100C760009C0531710F000FF01C013C020E207FFA0
:100C86000BC020E3006102FF07C00B7F4A930E945E
:100C96009007503009F051500E948307503009F0F8
:100CA60051503150A885B985129708F0B5CF00FF8D
:100CB60008C0503031F05150E0E2EA930E949007AC
:100CC600F8CF10E0E0CEAC85BD850E943A080E94C0
:100CD600940864960895FF92F82E26970E948F082E
:100CE6000E94A807309719F4EFEFFFEF23C0DE014B
:100CF60016960E94B9078D010E94A807EE83FF830E
:100D0600E0E0E887E987DE011A960E94B9070E94AB
:100D16003A08FA93EA931A930A93E0E0F5E0FA9315
:100D2600EA93DE011A96A3DE9F01AE81BF81E0E061
:100D3600EC93F9010E9496082A96FF900895BA93BB
:100D4600AA93A991B991EE27FF276D91662311F019
:100D56003196FBCF0895BA93AA93AA27BB27E991A8
:100D6600F9910590002011F01196FBCFFD01089531
:100D7600ED91FD913196FE93EE930895882799277C
:100D8600EE85FF85662777270E94EB070895AC81DD
:100D9600BD818E819F810895E2E4F2E0FA93EA93A1
:100DA600E3E0F0E0FA93EA93A0E1B0E00895EAE226
:100DB600F2E0FA93EA93E3E1F0E0FA93EA93A8E02B
:100DC600B0E00895A885B985EE27A00FBE1F089547
:100DD600E12FA2EDB1E0F0E00E94DC07AE0FBF1FED
:100DE6000E943E08D4DF0E9488080895F0E00E9421
:100DF600DC07AE0FBF1F0E943E080895A1E0B0E0D9
:100E06000C94AF07E0E0F0E060E070E00895E12FB9
:100E1600A2E4B2E0EBCFAAE2B2E0F0E0EE0FFF1FF1
:100E26000895AE0FBF1F0E943A08FA93EA930895F9
:100E360024971A93152D55240E94F201E983FA830B
:100E46006B837C8308950E94F201E983FA836B83A6
:100E56007C830895E52DA2E4B2E0F0E00E94DC0771
:100E6600EA0FFB1FA981BA818B819C810E945708DA
:100E76000895E52DA2E4B2E0B9CFA981BA818B81AC
:100E86009C8108950E94C707A983BA838B839C839C
:100E9600E52DC1CFF2DFE8E00E94D007A0E0B0E484
:100EA60082E49FE00E940B0831960895E6DFEACFC0
:100EB600E981FA816B817C81A0E0B0E088EE93E065
:100EC6000E940B0831960895E12FAEE1B2E0F0E002
:100ED600EE0FFF1FA6CF0E945204A3E0B0E00C94D1
:100EE600AF07A0E30E943D0484E191E00197F1F78A
:100EF6000895EC81FD813197EC83FD833196089549
:100F06002A93AD85BE85EF85F88909950895E88908
:100F1600F9893497E88BF98B0895AD85BE85EF8501
:100F2600F88909950895A889B98914960E943A08FE
:100F3600EE83FF83AE81BF810895A889B98914968F
:100F46000E943A08EA87FB870895DE011C960E94F4
:100F5600B9070E943A080895109639F0A8958DECC5
:100F66009AE00197F1F71197C9F708950024AF0D9C
:100F7600B01D0895EA0FFB1F681F791F0895EA1B2D
:100F8600FB0B680B790B0895AE1BBF0B860B970BFB
:100F96000895F195E195F0400895EE230E2EFD019A
:100FA600BC0131F076956795F795E7950A94D1F7E8
:100FB6000895EE0FFF1FEE0FFF1F0895E62FF72F80
:100FC60060E070E008956E2F7F2FE0E0F0E0089576
:100FD6007A9F702D6B9F700DF89F700DE99F700DB5
:100FE6006A9F602D710DFB9F600D711DE89F600D5E
:100FF600711D8827FA9FF02D610D781FEB9FF00D6C
:10100600611D781FEA9FE02DF10D681F781F089576
:101016003F934F935F93002411244427552730E2D2
:10102600AA0FBB1F881F991F001C111C441F551FA8
:101036000E1A1F0A460B570B28F40E0E1F1E461FCC
:10104600571F01C0A1603A9559F7FD01BC01D001B7
:10105600CA015F914F913F910895E894F7FF02C04E
:1010660098DF6894EA23FB230EF493DF0895ED914D
:10107600FC9111970895ED91FD916D917C911397D7
:101086000895ED93FD936D937C9308950590F491E7
:10109600E02D0895A881B9818A819B810895E8830E
:1010A600F9836A837B830895A083B18382839383C4
:1010B60008957A936A93FA93EA9308959A938A9392
:1010C600BA93AA930895E199FECFFF93FFB7F894D8
:1010D600AEBBBFBBE09AEDB3FFBFFF910895E19BA6
:1010E60002C0A895FCCF9FB7F894AEBBBFBBE09AF1
:1010F6008DB3E81719F0EDBBE29AE19A9FBF089508
:10110600EA17FB07680779070895AE17BF07860732
:10111600970708955A934A933A932A931A930A93F0
:1011260008955D814C813B812A811981088108954A
:00000001FF
